:100000000C946B040C9488040C9488040C94C31F07
:100010000C9488040C9488040C9488040C94880430
:100020000C9488040C9488040C94CA260C949D2784
:100030000C94C3210C9488040C9488040C948804B8
:100040000C9488040C9488040C9488040C94880400
:100050000C9488040C9484220C9488040C948804D6
:100060000C9488040C9488040C9488040C948804E0
:100070000C9488040C9488040C9488040C948804D0
:100080000C9488040C9488040C9488040C948804C0
:100090000C9488040C9488040C9488040C948804B0
:1000A0000C9488040C9488040C94880429001E0085
:1000B0001F00200021002200350014001A00080053
:1000C000150017002B0004001600070009000A00A5
:1000D000E1001D001B000600190005000000E00003
:1000E000E200E3002C622F002A00270026002500F2
:1000F000240023002800130012000C0018001C002C
:10010000340033000F000E000D000B002C083800E7
:1001100037003600100011000000E70001510251C5
:100120002C72300035003A003B003C003D003E00A0
:100130000100A900010001000253155C0100AA00A2
:100140000100010001000100140939000100010053
:1001500050014F0100000100010001002C00AA0025
:10016000010043004200410040003F004C003000CD
:100170002F00310231000100010027022602010098
:1001800001000100010031002E022E002D002D0281
:1001900000000100010001000100A90001000100B0
:1001A0000100010001000100010001000100010047
:1001B0004A004D00010001002B0309002B01010042
:1001C0000100010001000100010001000000010028
:1001D000010001002C00AA00350230022F020100AC
:1001E0004F0150014C0030002F00520000004B0026
:1001F000280031024F00510050004E000100310034
:100200002E022E002D002D020000E600E700010066
:100210000100A90000000000000000000000000034
:10022000000014051A050805000000000000040580
:100230001605070507070000E1001D051B0506055B
:1002400000000000000001000100010001000000AA
:1002500000000000300531052F05000000000000FF
:100260000C05520518050000000000004F050F05A1
:1002700050051005E50000000E0551050D050000B4
:1002800000000100010001000100000000AE00AF0D
:1002900000DA0281FFD9F1DB20A4A62EAF00A0C0B6
:1002A00000A1C800AED580A81FD300408D14200047
:1002B0000000000000003E5B4F5B3E003E6B4F6B5A
:1002C0003E001C3E7C3E1C00183C7E3C18001C5727
:1002D0007D571C001C5E7F5E1C0000183C1800004F
:1002E000FFE7C3E7FF00001824180000FFE7DBE783
:1002F000FF0030483A060E00262979292600407F63
:1003000005050700407F05253F005A3CE73C5A00A1
:100310007F3E1C1C0800081C1C3E7F0014227F220C
:1003200014005F5F005F5F0006097F017F000066C9
:1003300089956A0060606060600094A2FFA29400EA
:1003400008047E04080010207E20100008082A1CE3
:100350000800081C2A0808001E10101010000C1EAF
:100360000C1E0C0030383E383000060E3E0E0600E3
:1003700000000000000000005F0000000007000710
:100380000080947F147F1400242A7F2A12002313F4
:100390000864620036495620500000080703000038
:1003A000001C224100000041221C00002A1C7F1C6E
:1003B0002A0008083E080800008070300000080885
:1003C0000808080000006060000020100804020017
:1003D0003E5149453E0000427F4000007249494974
:1003E00046002141494D33001814127F1000274563
:1003F000454539003C4A494931004121110907006E
:10040000364949493600464949291E000000140072
:1004100000000040340000000008142241001414C1
:1004200014141400004122140800020159090600A6
:100430003E415D594E007C1211127C007F494949B2
:1004400036003F474D5932007F4141413E007F49D0
:10045000494941007F09090901003E4141517300AA
:100460007F0808087F0000417F4100002040413F95
:1004700001007F08142241007F40404040007F027D
:100480001C027F007F0408107F003E4141413E0076
:100490007F09090906003E4151215E007F091929A3
:1004A000460026494949320003017F0103003F40CD
:1004B00040403F001F2040201F003F4038403F0089
:1004C0006314081463000304780403006159494D60
:1004D0004300007F41414100020408102000004118
:1004E00041417F00040201020400404040404000BE
:1004F0000003070800002054547840007F2844443B
:100500003800384444442800384444287F00385494
:100510005454180000087E0902001824241C780096
:100520007F080404780000447D4000002040403DE6
:1005300000007F102844000000417F4000007C0440
:10054000780478007C080404780038444444380077
:100550007C1824241800182424187C007C08040427
:10056000080048545454240004043F4424003C40F0
:1005700040207C001C2040201C003C4030403C00BF
:100580004428102844004C9090907C004464544CC3
:1005900044000008364100000000770000000041E0
:1005A000360800000201020402003C2623263C001B
:1005B000000000000000000000000000000000003B
:1005C00000000080C0606060606060C0800000FE6D
:1005D000FE8080808080000000989800008000806D
:1005E000808080808000000000808080808080008B
:1005F000000000000000FFFE0000C78E0000FFFEAC
:100600000000800000000080000000E0E06060600A
:10061000604000000080C0E0606060E0C0800000DA
:100620000000000000000000000000000000E0F0FA
:10063000F0F0E0ECEEF7F37020007C7C7C7E007E36
:100640007E7E7F7F7F000080C0E07E5B4F5BFEC0D0
:100650000000C000DCD7DEDEDED7DC00C00000001A
:10066000000000000000000000000000000000008A
:10067000000000000000000000000000000000007A
:10068000000080870F0C1818183830E1C10000FFF7
:10069000FF03010103FFFF0000FFFF0000FFFF0356
:1006A00001010101030300FEFF010101010101FF3E
:1006B000FC0000000000FFFF0000FFFF0000FFFF44
:1006C00000007FFFC0C0C0FFFF00000F0F0C0C0C2C
:1006D0001CF8F00000C7EF7C3838387CEFC700000A
:1006E00000000000000000000000000000000F1FDC
:1006F0003F7F7F7F7F7F3F1E0C001F1F1F3F003FFC
:100700003F3F7F7F7F00307B7F7830202030787FB5
:100710003B0003000F7F0F0F0F7F0F00030000004F
:1007200000000000000000000000000000000000C9
:1007300000000000000000000000000000000000B9
:10074000000001030307060606060607030000076C
:100750000700000000070700000707000007070068
:100760000000000000000003070C0C0C0C0C0C0730
:100770000300000000000F1F00000F1F00000F1FEC
:10078000000070E0C0C0E17F3F00000E1C18181888
:100790001C0F070000070F1C1818181C0F0700007B
:1007A0000000000000000000000000000000000049
:1007B0000000000000000000000000000000000039
:1007C0000000000000000000000000000000000029
:1007D0000000000000000000000000000000000019
:1007E0000000000000000000000000000000000009
:1007F0000E034C0069006C007900350038000000E1
:1008000010036C0069006C00690075006D007300D6
:1008100000000403090409023B00020100A0FA09D8
:10082000040000010301010009211101000122401F
:10083000000705810308000109040100010300000D
:100840000009211101000122320007058203200066
:10085000011201000200000008D8042DEB00010184
:1008600002000105010980A101850319012AB700D1
:10087000150126B700950175108100C0050C09010E
:10088000A101850419012AA002150126A0029501E3
:1008900075108100C005010906A101050719E029AD
:1008A000E7150025019508750181029501750881FC
:1008B000010507190029FF150026FF009506750898
:1008C0008100050819012905950575019102950119
:1008D00075039101C00011241FBECFEFDAE0DEBF27
:1008E000CDBF12E0A0E0B1E0E4EEF9E502C0059072
:1008F0000D92AA32B107D9F725E0AAE2B2E001C011
:100900001D92A13AB207E1F70E94C6180C94CB2CB5
:100910000C9400008091830290918402A091850242
:10092000B091860284309105A105B105E1F128F569
:100930000097A105B10571F16DE871E08230910574
:10094000A105B10549F1BF93AF939F938F9388EAB7
:1009500091E09F938F931F9288E18F9384E593E0BA
:100960009F938F930E94A6298DB79EB70A960FB6C4
:10097000F8949EBF0FBE8DBF13C088309105A105AE
:10098000B10529F08E309105A105B105E1F66AE9BE
:1009900071E002C061E771E084E593E00E949F2965
:1009A00084E593E0089560E871E0F6CF80E091E09F
:1009B0000895089581E492E008958CE292E008950C
:1009C0000F9303E022E041E00E9466050F91089535
:1009D000CF93C82F0E946816811101C0C2E08C2FEE
:1009E000CF9108950E946816882389F00E948A0496
:1009F00060E00E94861A0E94DA0460E00E94861A73
:100A00000E94DD0460E00E94861A80E008950E9442
:100A1000D60460E00E946A1AF8CFFB0122812111FE
:100A20000E94D90481E0089581E008950C940D0599
:100A300008950C9418051F93CF93DF9300D000D036
:100A40000F92CDB7DEB749835A836B8330915A0238
:100A500089819A8131111DC06623B9F02223A9F042
:100A60000E947C0C182F682F89819A810E94230C88
:100A700069817A81812F0F900F900F900F900F90C6
:100A8000DF91CF911F910C9413130E94520C182FD9
:100A9000EFCF0E947C0C69817A81EDCFFC01262F7B
:100AA000408151816281738184810C941B0581E0B6
:100AB0000895CF93DF93D82FC92F60E00E944E0591
:100AC0006D2F7C2FDF91CF910C9419058F929F92FF
:100AD000AF92BF92CF92DF92EF92FF920F931F934C
:100AE000CF93DF9300D000D0CDB7DEB76B017C0190
:100AF00081E090E0A0E0B0E04C015D0104C0880C12
:100B0000991CAA1CBB1C4A95D2F7B501A4014C0143
:100B10005D0104C0880C991CAA1CBB1C2A95D2F745
:100B2000482959296A297B2904C0880F991FAA1FBF
:100B3000BB1F0A95D2F78A019B010C211D212E2192
:100B40003F210417150726073707F9F49C01AD016B
:100B50002C293D294E295F2929833A834B835C83C5
:100B600069817A818B819C810F900F900F900F90FB
:100B7000DF91CF911F910F91FF90EF90DF90CF9079
:100B8000BF90AF909F908F90089580959095A0957D
:100B9000B0954C015D018C209D20AE20BF20898244
:100BA0009A82AB82BC82DCCF0C94A5140C94A8145E
:100BB00008950E94090A0E94D8052FEF84E39CE063
:100BC000215080409040E1F700C000000C94A82222
:100BD0000F931F93CF93DF938C0161E00E944E052A
:100BE000EC01B8010E9416058823A9F1B801CE01D5
:100BF0000E94B51D882379F1B801CE010E94231C03
:100C0000882349F1B801CE010E941F1D882319F1E4
:100C1000F8018281882361F0CB35FDE5DF0721F102
:100C200070F4C115ECE5DE07A1F0CF3DDC45C9F05D
:100C3000C801DF91CF911F910F910C941405CC3511
:100C40008DE5D807A1F0CD35DD4591F70E949410D0
:100C5000EFCF0E94D90580E0DF91CF911F910F91D6
:100C600008950E944811F7CF0E949D10E1CF0E9485
:100C7000A010DECF0E94A8210E9454060C94B51B40
:100C80000E9457060C94AC2108950C94440681E010
:100C900008950C9447060895CF93C82F0E944506E7
:100CA0008C2FCF910C94490680E00C944C060E9446
:100CB000EA200C944C060E94EA2090915902981761
:100CC00021F0809359020C944C060895CF93DF9342
:100CD000CDB7DEB72B970FB6F894DEBF0FBECDBFF2
:100CE0004F83588769877A878B8761110E94E20F4B
:100CF0001E8285E0FE013796DE01119601900D926D
:100D00008A95E1F78C819D81892B89F449815A81EB
:100D10006B817C818D819E810E94FB0E2B960FB68C
:100D2000F894DEBF0FBECDBFDF91CF9108958981CA
:100D30009A8189238F3F51F3CE0101960E94570576
:100D40008111E4CFEBCFFC01808191810C94BE0C2A
:100D5000CF93C82F8823F1F18CEF8C0F813AA0F448
:100D60006C2F80914201909143010E94462188237B
:100D700029F08C2F0E94A20F0E9402108C2F0E943B
:100D80009B0FCF910C94021080E28C0F883048F4B6
:100D9000C77081E001C0880FCA95EAF70E94C30FAF
:100DA000F0CF8BE58C0F833038F42C2F2452330B8B
:100DB000C901CF910C940821C85AC73158F4EC2FBF
:100DC000F0E0EE0FFF1FE754FE4F80819181CF913D
:100DD0000C941E21CF910895882329F19CEF980F40
:100DE000913A20F40E94A20F0C94021090E2980F06
:100DF000983050F4877091E001C0990F8A95EAF716
:100E0000892F0E94C90FF0CF9BE5980F933020F4F3
:100E100090E080E00C940821885A873120F490E01B
:100E200080E00C941E2108951F93CF93DF93182F19
:100E3000EB010E94A806209731F4812FDF91CF911A
:100E40001F910C94EC068FE99FE00197F1F700C029
:100E500000002197F0CF70E060E0893311F460E585
:100E600070E00C941407882321F00E94C30F0C94A7
:100E700002100895882321F00E94C90F0C940210DB
:100E80000895CF92DF92EF92FF920F931F93CF932B
:100E9000DF9300D000D00F92CDB7DEB77C016D8319
:100EA0007983FC011281058102950F700E94B90FB0
:100EB000D82E8823B9F0D12E1123A1F08981807F0B
:100EC000803421F08D81805E8830E8F1809171035B
:100ED00082FD39C082E00E9463100E94B90F91E048
:100EE000D82ED926C980C2948FE0C822F8E0CF1648
:100EF00009F416C1FC1508F456C023E02C1528F19E
:100F00008981807F39813F70398391E09C1508F099
:100F10005EC0803221F029812295207F29833D8186
:100F2000332309F489C0313009F4C1C0112309F415
:100F3000C9C0002309F4C0C0F701858180FF5EC0ED
:100F40008F708583B9C0D12CCDCFE4E0CE1609F4E3
:100F5000CBC0EC2DE850FF0B349720F40E94EA2020
:100F60000E944C06DD2009F4F3C10E94B50F80FDFC
:100F7000EFC1F70112820E94AF0F0E94130BC7014D
:100F80000E94CD090E94AF0F0F900F900F900F900D
:100F90000F90DF91CF911F910F91FF90EF90DF9015
:100FA000CF900C94440BF9E0CF1609F463C186E0AE
:100FB0008C0D8F70823068F62D81223F09F06BC155
:100FC00089818F71111164C10E94130BC2CF8823D4
:100FD00021F009810295007F09831123A9F019816D
:100FE000112361F08D81805E883018F00D81011130
:100FF00007C089810E94C30F0E9402108D812BC0FF
:1010000089810E94D40FF8CF8D810E94EC0619814E
:10101000112309F49ECF8D81805E883018F00D81F8
:10102000011104C089810E94C90F03C089810E94F7
:10103000DA0F0E9402108DCF8091710382FF17C0DA
:10104000112361F00981002329F0802F0E94C30F32
:101050000E94021080E00E94A8067BCF80E00E94E0
:10106000EC061981112309F474CF812FDCCF1123F1
:1010700091F0011107C00E94E50F0981802B0E94A9
:10108000330767CF0130B9F70E94E50F1981812B33
:101090000E94EB0F5ECF011106C00E94F80F8981FC
:1010A0000E943A0756CF013009F453CFF6CF1123EF
:1010B00029F0063008F04DCF8981E1CF053008F0E6
:1010C00048CFEDCF002359F30D81093349F41FEFC9
:1010D00027EE33E0115020403040E1F700C000001F
:1010E0008D810E94EC0635CF898186958695837027
:1010F00069F0813009F02DCF8D81998193701111A4
:1011000002C090E080E00E941E2123CF8D81998152
:101110009370111102C090E080E00E94082119CF65
:101120008981837009F050C0111113CF2D81229550
:1011300026952770220F220F8D818F7090E0B0E0EE
:10114000A0E0022E04C0880F991FAA1FBB1F0A949B
:10115000D2F70D8140E050E0BA0104FF0FC04FE02C
:1011600050E060E070E004C0440F551F661F771F19
:101170002A95D2F7409550956095709519811695EE
:10118000169513701D838A019B01082B192B2A2B9E
:101190003B2B09831A832B833C831D8169817A81D0
:1011A0008B819C81123051F0133059F0113019F0BD
:1011B0000E948B0ACECE0E94630ACBCE0E94B30A55
:1011C000C8CE0E94610AC5CE8695112311F089818F
:1011D0008170882309F4BDCE2D8122952695277034
:1011E000220F220F8D818F7090E0B0E0A0E0022EE0
:1011F00004C0880F991FAA1FBB1F0A94D2F70D8144
:1012000040E050E0BA0104FF0FC04FE050E060E062
:1012100070E004C0440F551F661F771F2A95D2F750
:101220004095509560957095198116951695137097
:101230001D838A019B01082B192B2A2B3B2B098329
:101240001A832B833C831D8169817A818B819C81E8
:10125000123051F0133059F0113019F00E94D20BB6
:1012600078CE0E94AA0B75CE0E94FA0B72CE0E9415
:10127000DD0A6FCE09810F700983112329F0802FB9
:101280000E94130B8D81FBCE8D810E943A078981CC
:101290000E94440B5ECE2D81233F60F4203FC1F0BD
:1012A000213F89F0112309F442C00111A7CE8981A1
:1012B0008F718ACE3D81333FC9F0343F99F78091D9
:1012C000710382FF1DC089818F71112309F37CCEC8
:1012D000112341F0053008F03CCE89818F710E94C6
:1012E000790B37CE063008F034CEF7CF112329F032
:1012F00089818F710E94EE0A2CCE0E94E90A29CEC4
:10130000112359F009810F710983802F0E94130B5B
:1013100063E089810E9448101CCE81E00E94631026
:10132000023008F416CE82E00E94631012CE002331
:1013300061F01D81193309F0D3CE2FEF37EE83E032
:10134000215030408040E1F7C9CE89818F71A0CF14
:101350000F900F900F900F900F90DF91CF911F91F2
:101360000F91FF90EF90DF90CF9008950F931F9310
:10137000CF93DF93EC01688179818A810E94CA0C46
:101380008C010E94220C0E94600AB801CE01DF91FC
:10139000CF911F910F910C944107CF93DF93EC01F4
:1013A0008B819C81892B29F08881998189238F3FAA
:1013B00059F4DF91CF910895CE010E94B609CE0174
:1013C000DF91CF910C945905CE010E94E80581115F
:1013D000F3CF0E94B90F882361F38A81882349F3F0
:1013E0008091710382FDE5CF82E0DF91CF910C9473
:1013F000631090E080E00E94082190E080E00E946D
:101400001E210E94E20F0C9402100E94A90F0C945E
:10141000F9090E94D10F0C94050A282F92959F700C
:10142000963091F060F4925F9F70923030F481E0DA
:10143000203F81F030F4283E30F080E008959A5F3C
:10144000F3CF243FD1F7089581E0283EE0F3213F18
:10145000A1F7F9CF0895FC01808191810E94BE0C13
:101460000C940D0ACF93DF9300D000D00F92CDB72C
:10147000DEB70F900F900F900F900F90DF91CF91EC
:101480000895CF93DF9300D000D000D0CDB7DEB762
:1014900026960FB6F894DEBF0FBECDBFDF91CF9179
:1014A000089508950C94510A0E94520A609387028D
:1014B000709388028093890290938A020C94F909B0
:1014C00008950C94540ACF93DF9300D000D0CDB789
:1014D000DEB769837A838B839C83809187029091A6
:1014E0008802A0918902B0918A0229813A814B81B8
:1014F0005C81282B392B4A2B5B2B29833A834B8326
:101500005C83CA01B9010F900F900F900F90DF918B
:10151000CF910C94540ACF93DF9300D000D0CDB775
:10152000DEB769837A838B839C8380918702909155
:101530008802A0918902B0918A0229813A814B8167
:101540005C81282339234A235B2329833A834B83F5
:101550005C83CA01B9010F900F900F900F90DF913B
:10156000CF910C94540ACF93DF9300D000D0CDB725
:10157000DEB769837A838B839C8380918702909105
:101580008802A0918902B0918A0229813A814B8117
:101590005C81282739274A275B2729833A834B8395
:1015A0005C83CA01B9010F900F900F900F90DF91EB
:1015B000CF910C94540A0C94E0040E94DB0A6093CF
:1015C00083027093840280938502909386020C9428
:1015D000F90960E070E0CB010C94DD0A0F931F93D2
:1015E000CF93DF9300D000D0CDB7DEB741E050E01D
:1015F00060E070E08A019B0104C0000F111F221FF0
:10160000331F8A95D2F709831A832B833C83C90140
:10161000B8010F900F900F900F90DF91CF911F9115
:101620000F910C94DD0A0F931F93CF93DF9300D09B
:1016300000D0CDB7DEB741E050E060E070E004C01C
:10164000440F551F661F771F8A95D2F7809183023A
:1016500090918402A0918502B09186028A019B013B
:10166000082B192B2A2B3B2B09831A832B833C83B2
:10167000C901B8010F900F900F900F90DF91CF919B
:101680001F910F910C94DD0A0F931F93CF93DF935B
:1016900000D000D0CDB7DEB741E050E060E070E0B0
:1016A00004C0440F551F661F771F8A95D2F74095D7
:1016B0005095609570958091830290918402A091DD
:1016C0008502B09186028A019B01082319232A23EF
:1016D0003B2309831A832B833C83C901B8010F90F4
:1016E0000F900F900F90DF91CF911F910F910C945D
:1016F000DD0A0F931F93CF93DF9300D000D0CDB7B7
:10170000DEB741E050E060E070E004C0440F551FD8
:10171000661F771F8A95D2F7809183029091840289
:10172000A0918502B09186028A019B0108271927A2
:101730002A273B2709831A832B833C83C901B801DD
:101740000F900F900F900F90DF91CF911F910F91FD
:101750000C94DD0ACF93DF9300D000D0CDB7DEB775
:1017600069837A838B839C83809183029091840226
:10177000A0918502B091860229813A814B815C81DA
:10178000282B392B4A2B5B2B29833A834B835C8391
:10179000CA01B9010F900F900F900F90DF91CF9178
:1017A0000C94DD0ACF93DF9300D000D0CDB7DEB725
:1017B00069837A838B839C838091830290918402D6
:1017C000A0918502B091860229813A814B815C818A
:1017D000282339234A235B2329833A834B835C8361
:1017E000CA01B9010F900F900F900F90DF91CF9128
:1017F0000C94DD0ACF93DF9300D000D0CDB7DEB7D5
:1018000069837A838B839C83809183029091840285
:10181000A0918502B091860229813A814B815C8139
:10182000282739274A275B2729833A834B835C8300
:10183000CA01B9010F900F900F900F90DF91CF91D7
:101840000C94DD0A0895292F220FE22FE90FEE0FE5
:10185000E80F8E2F877041E001C0440F8A95EAF7A8
:10186000E695E695E69585E0E89FF0011124E55AB6
:10187000FD4F30E020E070E05191DF011197CB0186
:10188000022E02C0969587950A94E2F781708195A1
:101890008527842385278C932F5F3F4F2530310583
:1018A00059F70895292F220FE22FE90FEE0FE80FC5
:1018B0009E2F9770E695E695E69585E0E89FF00106
:1018C0001124E55AFD4F50E040E080E0219130E0E6
:1018D000092E02C0369527950A94E2F72170332726
:1018E000042E01C0220F0A94EAF7822B4F5F5F4F4C
:1018F0004530510559F70895BF92CF92DF92EF928C
:10190000FF920F931F93CF93DF938C01C0908302BC
:10191000D0908402E0908502F09086028091870248
:1019200090918802A0918902B0918A02C82AD92A8E
:10193000EA2AFB2ACFE1D0E0BC2ED701C6010C2E4B
:1019400004C0B695A795979587950A94D2F780FD20
:101950000EC0219788F7B12C8B2DDF91CF911F916D
:101960000F91FF90EF90DF90CF90BF900895B80156
:101970008C2F0E942713019761F3EECFCF93DF9353
:10198000D82FC92F0E947C0C6D2F7C2FDF91CF9117
:101990000C9427131F93CF93DF93162FD72F90917B
:1019A0005A02992339F0862F972FDF91CF911F91FB
:1019B0000C94BE0C882391F0862F972F0E947C0CEC
:1019C000C82F682F812F9D2F0E94230C612F7D2F00
:1019D0008C2FDF91CF911F910C942713862F972F77
:1019E0000E94520CC82FF2CF1F93CF93DF93E09148
:1019F0008B0216E080918C028E1304C0DF91CF9190
:101A00001F910895CE2FD0E01E9FF0011124E357BF
:101A1000FD4F4081518162817381848195810E9453
:101A2000410AFE013196E770E5CF4091BD02509129
:101A3000BE026091BF027091C0028091C10290917C
:101A4000C2020C94410AFF920F931F93CF93DF932E
:101A50008091C202807FD1F48091BF028823B1F0CF
:101A600080918B0210918C026091BD027091BE0238
:101A7000A091C002B091C102062F0723C09140017E
:101A8000D091410196E0F92E181306C0DF91CF9155
:101A90001F910F91FF90089590E0109711F00F3F64
:101AA00019F401968770F0CFF89E9001F99E300DE1
:101AB0001124F901E357FD4F41814713F2CF4081D3
:101AC0004613EFCF42814111ECCF438154814A1B31
:101AD0005B0B4C175D0728F78091C2028F70806105
:101AE0008093C202F901EE56FD4F80818F708061B4
:101AF00080838DEB92E00E94CD09DF91CF911F9101
:101B00000F91FF900C94F40CAF92BF92CF92DF92A2
:101B1000EF92FF920F931F93CF93DF93CDB7DEB772
:101B20002B970FB6F894DEBF0FBECDBF8C0185E0BA
:101B3000F801DE01179601900D928A95E1F7F80100
:101B4000E2808DEBC82E82E0D82E6091C0027091A9
:101B5000C1026115710509F432C19091BD02209155
:101B6000BE02822F89238F3F09F429C14081518110
:101B7000A380B480F090BF02F501E61BF70B6091E3
:101B8000400170914101FF2009F4EBC08091C20235
:101B9000382F307FE617F70708F0BDC0311179C044
:101BA000FE2C251323C0941321C0E1101FC08F7099
:101BB00080618093C2020E94150DC6010E94CD096A
:101BC0008091C202F80185838F2D2B960FB6F89471
:101BD000DEBF0FBECDBFDF91CF911F910F91FF9060
:101BE000EF90DF90CF90BF90AF900895AB2829F091
:101BF000842F85238F3F09F0FBC080E0F82FF17020
:101C0000DF2EE0918B0220918C0236E080FD1CC01B
:101C1000EE20D1F28091C20281608093C202F12C49
:101C2000D3CF8E2F90E03E9FF0011124E357FD4F5C
:101C30006181651306C06081641303C06281E6128E
:101C4000E7CFFC013196E770E213EBCF4F83588763
:101C50008F8198850E94BE0C292F22952F7090327B
:101C600060F0225F2F70223078F49F7051F0F801FD
:101C70009581907F31F4D12C0AC09F7011F0882398
:101C8000D1F3805E8830B8F3C8010E94CD09FD2CE5
:101C90009BCF251314C0941312C0E11010C0F8019B
:101CA0008583C8010E94CD0986E0F801ADEBB2E062
:101CB00001900D928A95E1F70E94150D85CFC8011C
:101CC0000E942B0A882319F1EE2009F18091C202AB
:101CD000803270F02091BD023091BE023A83298398
:101CE0001B82BD82AC828E83CE0101960E94CD09FB
:101CF00086E0F801ADEBB2E001900D928A95E1F734
:101D00000E94230D0E94150DFF24F3945DCFC8019E
:101D10000E94CD09F9CF311113C07A2DBB86AA8656
:101D20006E2D8B850E94320A8DEB92E00E94CD09C8
:101D300086E0F60111928A95E9F70E94150D6FCFA2
:101D40002513BDCF9413BBCFE110B9CFF801858324
:101D5000C8010E94CD0986E0F60111928A95E9F743
:101D600033CFE617F707F0F4FE2CEE2081F22513AF
:101D70000BC0941309C086E0F801ADEBB2E001900E
:101D80000D928A95E1F720CFC8010E942B0A81119C
:101D9000AFCF8091C20281608093C202C8010E94CD
:101DA000CD0912CF7A2DBB86AA866E2D8B850E9417
:101DB000320A86E0F60111928A95E9F77DCFEE208E
:101DC00009F4A5CFC8010E942B0AF82E882309F434
:101DD0009ECF86E0F801ADEBB2E001900D928A95BE
:101DE000E1F78DEB92E00E94A3060E94230D64CFE1
:101DF00081E08E2503CF1F93CF93DF93CDB7DEB75E
:101E00002C970FB6F894DEBF0FBECDBF4F83588717
:101E100069877A878B879C87CE0107960E94840DFD
:101E2000882369F08A859B85892B39F04F815885F5
:101E3000842F85238F3F09F077C016E065C086E0C8
:101E4000FE013796DE01119601900D928A95E1F719
:101E50006A857B856115710581F35F814885842FD3
:101E600085238F3F51F320918C0230E0C901019608
:101E700087709927E0918B02E817190671F40E9488
:101E8000090A10928C0210928B0286E0EDEBF2E0D0
:101E9000DF011D928A95E9F7D0CF59834A837D836C
:101EA0006C8396E0929FD001939FB00D1124A357AD
:101EB000BD4FFE01319601900D929A95E1F7809306
:101EC0008C020E94F40CB9CF819FC001112483576A
:101ED0009D4F0E94840D8823E9F0E0918B021E9FA4
:101EE000F0011124E357FD4F4081518162817381DC
:101EF000848195810E94410A80918B0290E0019635
:101F00008770992780938B0280918B0290918C022D
:101F10008913DACF2C960FB6F894DEBF0FBECDBF73
:101F2000DF91CF911F91089569857A858B859C8576
:101F30000E94410A82CF682F809142019091430113
:101F40000C948021682F80914201909143010C9460
:101F5000822180914201909143010C9484218091CF
:101F6000CB0285958595859508958091CB028770E4
:101F700008959091CB02977081E009F480E0089574
:101F80008091D60208959091D602982B9093D60214
:101F90000895982F90958091D60289238093D60238
:101FA00008951092D60208959091D502982B90939F
:101FB000D5020895982F90958091D502892380931A
:101FC000D50208951092D50208958091CC0208950B
:101FD00008950C94E80F9091710392FD08C09091C0
:101FE000CC02981721F08093CC020C94E90F08954D
:101FF0008091CC02882329F01092CC0280E00C94CE
:10200000E90F0895CF93DF93E0914201F0914301EE
:102010008091D6028083E0914201F091430180815A
:102020009091D502892B80839091CC02992381F0E5
:10203000E0914201F09143018081892B808380915E
:102040004201909143010E94342181110E94F80FB6
:10205000C0914201D091430148E050E063EC72E04E
:10206000CE010E948929892B69F088E0FE01A3EC4A
:10207000B2E001900D928A95E1F7CE01DF91CF9108
:102080000C94FD20DF91CF91089508950C94451094
:102090009091710392FD10C098E0899F90011124E6
:1020A000622B6093CB020E94130B8091CB0285952B
:1020B000859585950C9446100C94130B1092CB02C9
:1020C00080E00C9446109091CB02809589238093F8
:1020D000CB02282F277091F4282F082E000C330BE9
:1020E0009217130659F09091710392FD07C08595E0
:1020F000859585950E94440B0C945E1008959091EF
:10210000710392FB222720F9281769F080FB92F9CE
:102110009093710380917003909171030E94C41099
:1021200082E00C94631008958091710382FB8827EC
:1021300080F991E089270C947F1081E00C947F1046
:1021400080E00C947F1090E080E00E945A2C9C016B
:1021500081E0293E3E4F09F080E0089582E090E062
:102160000C94522C83E090E00C94522CCF9384E09A
:1021700090E00E94522CC82F82E290E00E94522CE4
:10218000982F8C2FCF910895CF93682FC92F84E07B
:1021900090E00E94602C6C2F82E290E0CF910C9432
:1021A000602CAB01BC018FE090E00C94722CAB0171
:1021B000BC0183E190E00C94722C60E070E0CB01F4
:1021C0000C94D71060E070E0CB010E94D1100C9409
:1021D000DD1069EE7EEF90E080E00E947E2C60E0F2
:1021E00082E090E00E94602C60E083E090E00E943A
:1021F000602C10928702109288021092890210922D
:102200008A0260E084E090E00E94602C60E082E25C
:1022100090E00E94602C60E085E090E00E94602CDD
:1022200060E086E090E00E94602C6FEF87E090E035
:102230000E94602C40E050E0BA0188E090E00E94EB
:10224000722C60E08DE090E00E94602C40E050E055
:10225000BA0188E190E00E94722C60E087E190E092
:102260000E94602C40E050E0BA018CE190E00E94B6
:10227000722C70E060E080E290E00E947E2C40E0F2
:1022800050E0BA0188E190E00E94722C0C94E210B8
:102290000C94E910682F8EE090E00C94602C0E9462
:1022A0002E226093E5027093E6028093E7029093FA
:1022B000E8026093E1027093E2028093E30290935C
:1022C000E402089585B7806885BF85B7806885BFBB
:1022D0000895089508950C946A1108950C946D1151
:1022E0000E94621189E694E10E94E0200E94691137
:1022F0000C946B110C946816089508950E947C113B
:102300000C947D110E946C140C944B060E941922AF
:102310000E9406140E948D160E94BC150E94821114
:102320000E94D31880E00E9431190E9497160C94E5
:102330006E119F92AF92BF92CF92DF92EF92FF9277
:102340000F931F93CF93DF9300D000D00F92CDB7A0
:10235000DEB70E94DE15D82E81110E944F1187ED45
:10236000A82E82E0B82E10E000E0902E802F0E9470
:10237000AA14F82EF501E1905F01E81609F444C0B3
:102380008091E90281FD0E94B0148E2D8F25C12C11
:10239000EE24E394982F9E2191F10E947A118823D4
:1023A00099F0C9829A82FE2081E009F480E08B8353
:1023B0000E9422228160782F9D838C8349815A81DB
:1023C0006B818D810E946606F801E952FD4F808184
:1023D000E826E08281E0D11001C080E00F900F90EC
:1023E0000F900F900F90DF91CF911F910F91FF9061
:1023F000EF90DF90CF90BF90AF909F900895C394DF
:10240000EE0CF6E0CF12C6CF0F5F1F4F0A3011055A
:1024100009F0ABCF8FEF89838A831B820E9422222F
:102420008160782F9D838C8349815A816B818D8156
:102430000E946606CFCFCF930E949911C82F0E94A9
:1024400068160E94D21BC1110E948B1ACF910C9466
:102450005B06CF93DF930E942B13EC01811522E5DD
:10246000920708F053C0811531E5930708F0AEC01C
:102470008F3B9105B8F4883A910508F099C0853AE8
:10248000910568F4049738F491E080E0219709F011
:1024900090E0C92FD82FCE01DF91CF910895A49756
:1024A000D064F9CF811540E59407A0F4C11580E40C
:1024B000D80708F088C0C83ED10530F4C03ED10529
:1024C00050F7D0E0C0E0E7CFCE019A9581159F414B
:1024D00010F3F7CFF4E096958795FA95E1F78370BE
:1024E0002C2F26952695237040E2249F90011124DD
:1024F000382B8C2F8370C1E0D0E002C0CC0FDD1FE1
:102500008A95E2F7C22BD32BDC68C5CFC11586E5CF
:10251000D80730F5C11595E5D90708F06BC0C1158E
:1025200024E5D207C0F49C2F969596959E012370C2
:102530003327C115D34508F04EC0C1E0D0E002C03A
:10254000CC0FDD1F2A95E2F720E2929FC0011124F3
:10255000C82BD92BD9CFDC2FCC27C46FD06A9BCF07
:10256000C1153AE5D30788F4C11549E5D40708F049
:102570004CC0CE0198558F3F910511F008F0A1CFC6
:10258000DC2FCC27C06FD06A86CFCE019056811544
:10259000904208F096CF8D2F8F710E94C31390E068
:1025A000982F882788279F719C012C2BE9012BC02D
:1025B000C85AD0E0CC0FDD1FC951DE4F0990D88139
:1025C000C02DD46468CFDF70D06A65CFD82FCC27F8
:1025D000C16FD06A60CFC1E0D0E002C0CC0FDD1F78
:1025E0002A95E2F730E2939FC0011124C82BD92B22
:1025F000DA6851CF8C2F0E94C313C82FD0E0DC2F94
:10260000CC27CC27DF71D06246CF8C2F8F700E94F1
:10261000C31334E0D695C7953A95E1F7CF70DC2F18
:10262000C82FD06938CF972F70E026E0929F600DB9
:10263000711D1124FB019CE3899FE00DF11D112404
:10264000EE0FFF1FE455FF4F8591949108950E946E
:1026500013130C942912803E910599F1C8F481332B
:10266000910509F476C048F48932910509F46AC0ED
:102670008A32910509F474C0089589339105D1F027
:1026800082389105B9F08533910509F454C0089555
:10269000843E910599F138F4823E9105F9F0833E2C
:1026A000910509F10895863E910599F1873E9105BE
:1026B000B9F10895209170032370A1F080EE90E0AD
:1026C00008952091700320FD52C03091710330FFB6
:1026D00009C024FF4FC090E080E004C02091700347
:1026E00022FDF7CF08952091700322FD46C030915E
:1026F000710330FDE3CF24FFF5CFEDCF20917103BF
:1027000021FFF0CF8091700384FDE5CF87EE90E04C
:1027100008952091700323FFE5CF24FDDCCFF6CF91
:102720002091700323FD2CC03091710331FFE3CF62
:1027300084EE90E008952091700325FFD3CF89E2C5
:1027400090E008952091700325FFCCCF85E390E0C1
:1027500008952091700326FFC5CF8AE290E0089586
:102760002091700326FFBECF81E390E0089589E3B6
:1027700090E0089583EE90E0089582EE90E0089551
:1027800086EE90E008959091700392FF06C0282F86
:1027900028712830F9F4877F846093FF06C0282FC2
:1027A00028712831F1F4877E84612091710320FF24
:1027B00006C0382F38713830D9F4877F816021FF07
:1027C00006C0282F28712831D1F4877E816194FDBD
:1027D000877E0895282F24712430F9F68B7F886036
:1027E000DCCF282F2471243101F78B7E8861DDCF67
:1027F000382F3171313019F78E7F8860E0CF282F64
:102800002171213121F78E7E8861E1CF10926C0316
:1028100010926D0310926E0310926F030895CF9281
:10282000DF92EF92FF92CF93DF9300D000D0CDB72D
:10283000DEB76B017C010E94681681110EC00E94F8
:102840002E22C61AD70AE80AF90AC0926C03D0925F
:102850006D03E0926E03F0926F030F900F900F9054
:102860000F90DF91CF91FF90EF90DF90CF90089580
:10287000CF93DF9300D000D0CDB7DEB70E946816AB
:10288000882341F00F900F900F900F90DF91CF9120
:102890000C942E220E942E2269837A838B839C8340
:1028A00080916C0390916D03A0916E03B0916F03C2
:1028B00029813A814B815C81280F391F4A1F5B1F98
:1028C000CA01B9010F900F900F900F90DF91CF9137
:1028D000089580E008950895CF93DF9300D000D04D
:1028E000CDB7DEB70E94A310811102C00E9448112B
:1028F0000E94AE108093E9020E94B610909371037B
:10290000809370030E946B140E94B210282F30E055
:1029100050E040E0CA01B9010E94610A809183023F
:1029200090918402A0918502B091860289839A8356
:10293000AB83BC83BC01CD010F900F900F900F9023
:10294000DF91CF910C94DB0A08950C94A4140895A0
:102950000C94A714E82FF0E0E358FC4F8081089511
:10296000089580EA8A95F1F7089500C008950C94BF
:10297000B11408950C94B914EF92FF921F93CF9362
:10298000DF9300D000D00F92CDB7DEB70E9468165B
:10299000182F60918703882309F449C01A8219828D
:1029A000FE01339683E0DF011D928A95E9F7862FB9
:1029B00090E032977F01BF0183589C4F0E94A5167B
:1029C0008823F1F08091720390E045E050E0B70178
:1029D00083589C4F0E94892921E02093EA02892B89
:1029E000D1F410E00E94D605812F0F900F900F9028
:1029F0000F900F90DF91CF911F91FF90EF9008956E
:102A00008091EA02882369F385E0D7011D928A95B7
:102A1000E9F71092EA02A0917203B0E0A358BC4F0C
:102A200085E0F70101900D928A95E1F7DBCF70E028
:102A300063587C4F8091720390E083589C4F0E94B2
:102A400033170E94BA14D0CFF894E82FE295EF70B4
:102A5000F0E041A18F7021E030E0B90102C0660FC3
:102A6000771F8A95E2F7CB01962F9095942391A337
:102A700092A1892B82A378940895CF93DF93CBE121
:102A8000D2E089918F3F11F00E94241582E0C0327C
:102A9000D807B9F7C5E1D2E089918F3F11F00E94C4
:102AA000241582E0CB31D807B9F7DF91CF91089593
:102AB000CF92DF92EF92FF920F931F93CF93DF930A
:102AC000EC01D62E062F10E0C801855E9D4F7C01DB
:102AD000FC0120812F3F09F444C0F894E22FE295D5
:102AE000EF70F0E031A12F7081E090E001C0880F1D
:102AF0002A95EAF7932F982B91A392A18095892389
:102B000082A378940E94B514E5E1F2E031E0C12C93
:102B100021912F3F79F1A22FA295AF70B0E090964E
:102B20008C9190E02F7002C0959587952A95E2F7D9
:102B300080FD20C0832FC82A330F82E0EB31F807D5
:102B400039F7F70180818F3F11F00E94241561E071
:102B5000C11001C060E08D2D0E94B714C00FD11FBD
:102B6000C882DF91CF911F910F91FF90EF90DF907E
:102B7000CF90089580E0DFCF80914401809144019F
:102B800095E0811190E09093870385E0891B809305
:102B900072030E943D158AE0EDE7F3E0DF01982F14
:102BA0001D929A95E9F7E3E7F3E0DF011D928A951C
:102BB000E9F785E00E9431160C94D4050F931F931A
:102BC000CF93DF93CDB7DEB72A970FB6F894DEBF69
:102BD0000FBECDBF1A821982FE01339688E0DF0155
:102BE0001D928A95E9F710E0612FCE0101960E94AF
:102BF00058151F5F1530C1F74AE050E0BE016F5F06
:102C00007F4F83E793E00E9489298C0121E0892B83
:102C100009F420E00115110549F08AE0FE01319622
:102C2000A3E7B3E001900D928A95E1F760918703E5
:102C300070E063587C4F45E083E793E00E943216D2
:102C400081E090E0012B11F40E94BC142A960FB68B
:102C5000F894DEBF0FBECDBFDF91CF911F910F91D2
:102C600008950895FF920F931F93CF93DF93F82E4B
:102C7000092F162FD72FC42F222349F081E08093EC
:102C8000ED020E9422229093EC028093EB0280914D
:102C9000ED028823A1F08091EB029091EC020E945A
:102CA0004E22059760F0EF2DF02FA12FBD2FCE0FF4
:102CB000DF2FD11DEC17FD0741F41092ED02DF91DB
:102CC000CF911F910F91FF90089581918D93F2CF35
:102CD000CF938091F002811116C0C8EC0E94542954
:102CE00081110EC08FE39CE90197F1F700C000004D
:102CF000C150A1F782E08093F0020E944F2903C0E7
:102D000081E08093F00281E09091F002913009F02F
:102D100080E0CF9108950C9468160E948B168093E2
:102D200044010E94681681110C94DD1608950E94DA
:102D30006816811102C00C94DF16089581E090910D
:102D4000F1029A3008F080E008950F931F93CF931B
:102D5000DF93EC01162F072F8091F1028A30C0F427
:102D6000612F702FCE010E943117C82F811122C010
:102D70008091F1028F3FB9F40E9422229093EF02DA
:102D80008093EE028C2FDF91CF911F910F910895C8
:102D90008091EE029091EF020E944E22843F91407A
:102DA000F8F6C0E0EFCF8F5F8093F1028A3020F712
:102DB000C1E0E8CF1092F102E5CF0C947C1F0C9497
:102DC0007F1FCF92DF92EF92FF920F931F93CF93CB
:102DD000DF93FA0169017801C82F880FDD0B309766
:102DE000B1F0DE0193E0AA0FBB1F9A95E1F7AB5B50
:102DF000BE4F11968D919C9112978E509D4F4C9184
:102E000050E0E417F50708F4AF010E949629CE01BF
:102E10000E946A20182F8823D1F0E114F104B9F040
:102E200083E0CC0FDD1F8A95E1F7FE01EB5BFE4FDF
:102E3000438150E0E416F50608F4A701CB5BDE4FB2
:102E40006C817D816E507D4FC6010E949629812F35
:102E5000DF91CF911F910F91FF90EF90DF90CF9076
:102E600008950C9462180C9480180F931F93CF93BD
:102E7000DF93CDB7DEB728970FB6F894DEBF0FBE4D
:102E8000CDBF8091090390910A03A0910B03B091EB
:102E90000C03BC01CD010E945D2211E06436710576
:102EA0008105910520F10E943814DC01CB010296C6
:102EB000A11DB11D89839A83AB83BC8310E000E020
:102EC00030E020E044E050E0BE016F5F7F4F82E0E1
:102ED0000E94E116182F882351F00E942E22609341
:102EE000090370930A0380930B0390930C03812FC3
:102EF00028960FB6F894DEBF0FBECDBFDF91CF91FD
:102F00001F910F910895AF92BF92CF92DF92EF92EF
:102F1000FF920F931F93CF93DF93CDB7DEB72A971E
:102F20000FB6F894DEBF0FBECDBF7B01A09020028C
:102F3000B090210201E010E09E012A5F3F4F50E077
:102F400040E070E060E080E00E94E116182F8823E6
:102F500009F44EC065018FEFC81AD80A80910503A5
:102F600090910603A0910703B0910803BC01CD0125
:102F70000E945D226F83788789879A8764367105FE
:102F80008105910568F105E010E09E012F5F3F4F3C
:102F900050E040E070E060E081E00E94E116082F20
:102FA00065E070E0C6010E94D41811E09E8198137C
:102FB00010E0102341F10E942E22609305037093CC
:102FC0000603809307039093080385E0FE01319682
:102FD000A0E0B3E001900D928A95E1F711E013C0F3
:102FE00065E070E0C6010E94D4189E818913CBCFA2
:102FF00085E0F5013196DE01119601900D928A95DA
:10300000E1F71111E2CF85E0E0E0F3E0D7010190B4
:103010000D928A95E1F7812F2A960FB6F894DEBFBC
:103020000FBECDBFDF91CF911F910F91FF90EF9019
:10303000DF90CF90BF90AF900895AF92BF92CF92A4
:10304000DF92EF92FF920F931F93CF93DF93F82EAF
:10305000E92ED62EC72E8A010E949E16AA24A3947A
:10306000B12C882319F08AE0A82EB12CC1E0D0E061
:10307000F8946D2D7C2D8F2D9E2DF8010995789457
:10308000811104C02196AC16BD065CF4DF91CF918E
:103090001F910F91FF90EF90DF90CF90BF90AF9076
:1030A0000895CC9F9001CD9F300D300D112490E0FC
:1030B00080E045E34A95F1F70000019682179307F7
:1030C000C1F7D6CF0F931F93CF93DF93D82FC92F7C
:1030D0008B0143E857E10E941D18882359F045E30E
:1030E00057E1B8018D2F9C2FDF91CF911F910F9148
:1030F0000C941D1880E0DF91CF911F910F910895DE
:103100000F931F93CF93DF93FB01F894C09120029C
:10311000D0912102CE01019625E0DC0101900D92B3
:103120002A95E1F765E070E00E94D41888837894CE
:10313000F8946E817F81888599850091FC021091B9
:10314000FD022091FE023091FF0260177107820795
:10315000930751F06093FC027093FD028093FE028E
:103160009093FF020E940F147894DF91CF911F91EA
:103170000F9108950E942A240E9486110C943624EF
:103180000E943A240E941B120C9454240E94C221D3
:103190000E9411240E9470110E94BA180E94C01847
:1031A0000E947E11FBCF0895FC01680F791F8FEFFD
:1031B00091E36E177F0709F408952191822728E093
:1031C00030E087FF06C0880F892721503109C9F7F1
:1031D000F0CF880FFACFCF92DF92EF92FF920F934A
:1031E0001F93CF93DF936C017B0164E670E088E767
:1031F0000E94101EEC0197FD12C010E000E0F601E5
:10320000E00FF11F849164E670E00E948A1EEC01D9
:10321000892B29F40F5F1F4F0E151F0581F70E94A0
:10322000171FCE01DF91CF911F910F91FF90EF906B
:10323000DF90CF9008950895E8E8F3E080E092E011
:10324000DF019C011D9221503040E1F7F0938F0582
:10325000E0938E058FEF9FEF9093390380933803AF
:103260000895CF93DF9300D000D0CDB7DEB70E9492
:103270001B190E94E8048093340380FD15C080E888
:10328000809333030E940A1E6DE070E083EA92E0AF
:103290000E94EB18892B51F080E00F900F900F9057
:1032A0000F90DF91CF91089580E2EACF80913403AF
:1032B00063E070E081FD28C080EA92E00E94EB1894
:1032C000892B51F76DE070E080E992E00E94EB18E5
:1032D000892B11F70E942E22DC01CB01805A9541E7
:1032E000AF4FBF4F80938A0590938B05A0938C05B9
:1032F000B0938D050E941C1981E080933703809361
:10330000360310923503C9CF8DE992E0D7CF2091D3
:10331000330336E0839FC0011124629F800D911D0D
:103320001124811522E0920714F090E080E0885784
:103330009C4F90938F0580938E05089520918E0564
:1033400030918F052258334040913303642F70E051
:10335000C9010E946629481B463010F4240F311D14
:10336000211582E0380710F030E020E028573C4F6C
:1033700030938F0520938E0508951F93CF93DF938D
:10338000982F162F81E09A3019F09D3031F480E0AB
:10339000DF91CF911F910C94371AC0918E05D09177
:1033A0008F0586E0FE01ADE0B3E001900D928A95B5
:1033B000E1F7903EC8F086E0FE0111928A95E9F7A8
:1033C00011111EC0C0918E05D0918F0546E050E0CE
:1033D000BE018DE093E00E948929892BF9F4DF91E9
:1033E000CF911F910C949E19F6E09F9FB00111247C
:1033F00060557D4F46E050E0CE010E948029E0CF2D
:10340000E0918E05F0918F059F012A5F3F4F2E17A7
:103410003F07C1F2808180958193F9CFC858D3408E
:10342000CE0125E0969587952A95E1F721E030E0D9
:10343000A90102C0440F551F8A95E2F7CA014091C5
:10344000380350913903842B952B259645E0D6956A
:10345000C7954A95E1F702C0220F331FCA95E2F7DC
:10346000822B932B9093390380933803B8CFCF935B
:10347000382FE0918E05F0918F05E858F3402091A8
:103480003303622F70E0CF010E946629281B822F30
:10349000332369F066E00E945A29C82FC15010F406
:1034A000CF91089560E080E20E94BD19F7CF9F019F
:1034B000280F311D2115324018F080E0F0E0E0E0E7
:1034C0008E0F9F2F911D88579C4F90938F0580934F
:1034D0008E05E6CFFF920F931F93CF93DF93EC01FE
:1034E000F62EFC0101900020E9F78F01015011092F
:1034F000C017D10730F0DF91CF911F910F91FF904E
:1035000008956F2D89910E94BD19F2CF0E946A1A09
:1035100081E00C94371ACF93DF9300D000D0CDB761
:10352000DEB780913703811109C0809136030F9077
:103530000F900F900F90DF91CF9108950E942E224F
:10354000DC01CB01805A9541AF4FBF4F80938A0574
:1035500090938B05A0938C05B0938D0580913603D5
:103560008111E3CF62E070E08EE892E00E94EB18F8
:10357000892BD9F681E080933603D7CF2F923F92E3
:103580005F926F927F928F929F92AF92BF92CF92F3
:10359000DF92EF92FF920F931F93CF93DF9380916F
:1035A0003703882369F020913803309139032115BE
:1035B000310531F08091350361E070E0882399F0A6
:1035C000DF91CF911F910F91FF90EF90DF90CF90FF
:1035D000BF90AF909F908F907F906F905F903F9043
:1035E0002F9008958F5F082F10E01B01082E02C056
:1035F000220C331C0A94E2F7A90142215321452BE6
:1036000089F39091340390FD44C08295880F8076B1
:1036100080935F01980136952795369527952093DD
:103620006201815E809360011092630124E630E0C4
:1036300047E050E06DE571E088E70E94B91E892BF4
:1036400009F0BECFA80125E0440F551F2A95E1F7E8
:103650008091340380FD2BC048575C4F04E610E096
:1036600020E230E060E488E70E94E61E892B09F042
:10367000A7CF0E948B1AE101C095D09580913803A5
:1036800090913903C823D923D0933903C0933803C9
:1036900097CF880F880F880F80935F011092620187
:1036A000895F8093600183E080936301BFCFE3E192
:1036B000F3E080E2DF011D928A95E9F7A6E2B2E02D
:1036C00002E212E08AE2C82E82E0D82E97E0592E5C
:1036D000772473948D91E80129918E01240F352F61
:1036E000311D28573C4FE82FF0E0ED5EFC4F90E095
:1036F00080E0652C681A872C082E01C0880C0A947B
:10370000EAF77901A12CE701B9907E01B820662D76
:103710006A196770962E062E000C770BDB2D01C000
:10372000DD0F9A94EAF771956195710967707727B3
:1037300001C0B6946A95EAF7BD2A6081962E9B284F
:103740009082A39468E0A612DECF0196319688306D
:10375000910579F6CA16DB0609F0BCCF04E610E045
:1037600020E230E043E153E07DCF80913603909139
:103770003703911103C091E089270895882369F0E8
:1037800062E070E08CE892E00E94EB18892B19F05F
:103790008091360308951092360380913603EBCF63
:1037A0000C94F204CF93DF9300D000D0CDB7DEB7F6
:1037B00080913703882309F43FC080918805909158
:1037C00089050E944E22C29760F00E9422229093A7
:1037D00089058093880560E080E00E9487190E9437
:1037E000D01B0E94BE1A80913603882329F10E94C3
:1037F0002E2269837A838B839C8380918A059091A2
:103800008B05A0918C05B0918D0529813A814B8162
:103810005C81281B390B4A0B5B0BDA01C9018F3F16
:103820009F4FAF4FBF4740F40F900F900F900F90F6
:10383000DF91CF910C94B51B0F900F900F900F90CC
:10384000DF91CF910895CF93DF93EC01FB0182814B
:10385000882309F4F2C0C236FDE5DF0749F048F5D8
:10386000C631ECE5DE07E0F4C230FCE5DF07F0F03E
:103870000E94B6109093710380937003C631ECE5FB
:10388000DE0748F5C230FCE5DF07C0F48091700325
:10389000909171030E94C4100E94090A80E006C042
:1038A0009E012B5F3C452930310510F3DF91CF910C
:1038B0000895C63A9DE5D907C9F7DACFFE01E3506E
:1038C000FC45809170038160E331F10528F5E353F5
:1038D000F34D0C947A29C4308DE5D80770F4CB3FB2
:1038E0009CE5D90798F2FE01EC5FFC45E830F10554
:1038F00010F5E052F34D0C947A29C236EDE5DE075F
:1039000009F494C090917003892F8E7F90FF81609D
:10391000C63ADD4509F0BACF80937003B7CF8091E6
:1039200070038260F9CF809170038460F5CF80913D
:1039300070038860F1CF809171038160809371037F
:10394000A5CF809171038260F9CF8091700380616F
:10395000E3CF809170038062DFCF80917003806439
:10396000DBCF0E94090A809170038068D5CF8091D7
:1039700070038C60D1CF809171038360DFCF809121
:1039800070038E7FC9CF809170038D7FC5CF8091EA
:1039900070038B7FC1CF80917003877FBDCF8091F3
:1039A00071038E7FCBCF809171038D7FC7CF8091C4
:1039B00070038F7EB1CF809170038F7DADCF8091EA
:1039C00070038F7BA9CF0E94090A809170038F77C3
:1039D000A3CF80917003837F9FCF809171038C7FF1
:1039E000ADCF8091700382FB992790F921E0922757
:1039F00090FB82F990FB83F98FCF80917103982F10
:103A0000909591708E7F892B90FB81F997CF0E94C2
:103A1000090A90917003892F97FB87F980587CCF12
:103A200081E00E944A1132CF80E0FBCF9091700379
:103A3000892F8F7E94FF80616FCF81E037CFCF9346
:103A4000DF93EB0186319C4511F50E94C00F9A81EE
:103A5000992399F08A7A91E009F490E090933A03DF
:103A6000811109C089E20E949B0F0E94021080E030
:103A7000DF91CF91089585E3F6CF80913A038111CC
:103A800004C089E20E94A20FF0CF85E3FBCF81E062
:103A9000EFCF0F931F93CF93DF93C42FD22FFC014F
:103AA00082818823C9F040933D030E942222909393
:103AB0003C0380933B0380E28C0F883008F050C0B9
:103AC000C77081E001C0880FCA95EAF7DF91CF91F6
:103AD0001F910F910C94330710913D03141335C0BF
:103AE00080913B0390913C030E944E228A3F9105B6
:103AF00060F5C0E2CD0F1D17B9F080E2810F88306C
:103B000040F4177081E001C0880F1A95EAF70E940F
:103B10003A07C83048F481E09D2F977001C0880FA4
:103B20009A95EAF70E943307802F0E942B07C8302E
:103B3000B8F4D77081E001C0880FDA95EAF7DF9119
:103B4000CF911F910F910C943A0780E28C0F88302F
:103B500038F4C77081E001C0880FCA95EAF7EFCF4B
:103B6000DF91CF911F910F9108950F939C01CB018D
:103B7000243F4CE53407A1F190F4293DFCE53F07D3
:103B800049F12A3D4CE53407E9F1283D3C45C1F0B7
:103B9000FC0182818823E1F110923D0319C0263F88
:103BA000FCE53F0719F1273F4CE5340729F1253F94
:103BB0003C4571F707E225EE44EE65EF7CE505C074
:103BC00006E221EE41EE68ED7CE50E94491D80E0B1
:103BD0000F91089507E225EE45EE69ED7CE5F5CFFE
:103BE00006E221EE40EE64EF7CE5EFCF06E221EE47
:103BF00042EE66EF7CE5E9CF07E225EE46EE67EFA1
:103C00007CE5E3CF08E221E045EE6AED7CE5DDCF1F
:103C100081E0DECF1092B9008CE08093B800089567
:103C20009F92AF92BF92CF92DF92EF92FF920F934B
:103C30001F93CF93DF93B82EEB010E9422226C01D9
:103C4000EE24E394F12CC431D10560F025E0E22E9E
:103C5000F12CCF3FDC0731F0CE0164E170E00E942F
:103C600066297B0184EAA82E94E8992E1092BC0064
:103C7000A092BC000E9422228C018091BC0087FF90
:103C80000DC08091B900887F883039F18091B900EA
:103C9000887F803111F10FEF1FEF09C00E942222AF
:103CA000801B910B8E159F0540F30EEF1FEFCF3F4A
:103CB000DC07E1F2C6010E944E228C179D07B0F28C
:103CC000C801DF91CF911F910F91FF90EF90DF908E
:103CD000CF90BF90AF909F900895B092BB0090920C
:103CE000BC000E9422228C018091BC0087FF0AC088
:103CF0002091B900287F283111F0203461F610E0BE
:103D000000E0DECF0E942222801B910B8E159F05C2
:103D100058F3CBCF0F931F93CF93DF93EB01809397
:103D2000BB0084E88093BC000E9422228C01809119
:103D3000BC0087FF11C02091B900287F81E090E08E
:103D4000283211F490E080E0919581959109DF91FE
:103D5000CF911F910F910895CF3FDC0741F30E944F
:103D60002222801B910B8C179D0708F38EEF9FEF8B
:103D7000EECFCF92DF92EF92FF920F931F93CF93EC
:103D8000DF936B018A01F22EE32E622F732F0E94C4
:103D9000101EAC01E6010C0D1D1DC017D10711F05E
:103DA00057FF0DC084E98093BC00CA01DF91CF9119
:103DB0001F910F91FF90EF90DF90CF9008956F2D9E
:103DC0007E2D89910E948A1EAC01E7CFCF92DF92AF
:103DD000EF92FF920F931F93CF93DF93C62F6A0149
:103DE0007901B8010E94101E9C0197FD0DC0B80119
:103DF0008C2F0E948A1E9C01E601EC0CFD1CCE1546
:103E0000DF0511F037FF0DC084E98093BC00C901C4
:103E1000DF91CF911F910F91FF90EF90DF90CF90A6
:103E20000895B80189910E948A1E9C01E8CF84E917
:103E30008093BC0008958EE14A9B02C08150E1F757
:103E40004A9BFECF08955A9880E28A95F1F75A9AD4
:103E50000895FC013BE03A95F1F798E020E080E01E
:103E600031E040E14A95F1F7880F4A9B02C081603A
:103E7000232742E04A95F1F7000040E14A95F1F727
:103E8000915079F790E19A95F1F799B132E03A952E
:103E9000F1F7000040E14A95F1F792FB992790F97C
:103EA00092272081920F90830895EF92FF920F93B3
:103EB0001F93CF93DF930F92CDB7DEB719828C019A
:103EC0007C01E60EF11C0E151F0561F481E099815D
:103ED000911180E00F90DF91CF911F910F91FF9092
:103EE000EF9008950E941B1FCE0101960E94291F8A
:103EF000F80181938F01E7CF529A5A9A0895529808
:103F00005A9AEA9AE9E6F0E080818F7C80830895EE
:103F10006150770B91E001C0990F6A95EAF720E0B4
:103F200031E0911108C0222391F05A9A80E28A95DB
:103F3000F1F75A980895492F482339F05A9A2327C0
:103F400040E24A95F1F79695ECCF5A98F9CF5A98F6
:103F5000EDCFFF920F931F93CF93DF93EC018C0172
:103F6000060F111DC017D10731F4DF91CF911F91BA
:103F70000F91FF900895F9900E94231F68E08F2D04
:103F80000E94881FEFCF1F920F920FB60F9211243D
:103F90000F931F932F933F934F935F936F937F9351
:103FA0008F939F93AF93BF93EF93FF93CF93DF9341
:103FB0000F92CDB7DEB719820E941B1FCE0101966A
:103FC0000E94291F282F082F069506950695982FE1
:103FD00092959570802F8570980F892F8370969594
:103FE0009695890F822787709981892B09F05CC08B
:103FF000043008F059C080E18A95F1F75A9A529A34
:1040000082E08A95F1F700C05A9888E0089F800105
:104010001124D801AB5BBE4F1696ED91FC9117971A
:104020003097A9F0609120027091210214962D9191
:104030003C911597260F371F11968D919C911297E1
:10404000680F791F13964C9113978C910995F8017D
:10405000EB5BFE4F6381662351F02091200230918B
:10406000210284819581820F931F0E94A91F0E94C3
:10407000231F80E18A95F1F75A9852985A9A80E165
:104080008A95F1F7F801EB5BFE4F6081662351F0F2
:10409000209120023091210281819281820F931F11
:1040A0000E94551F0E941B1F0F90DF91CF91FF911F
:1040B000EF91BF91AF919F918F917F916F915F91A0
:1040C0004F913F912F911F910F910F900FBE0F9025
:1040D0001F9018950F931F93CF93DF93EC010497D4
:1040E0000CF04CC0F894529A5A9885E08A95F1F7F2
:1040F00000008C2F869585709C2F9570890F982FC6
:1041000093708695869523E0CC0FDD1F2A95E1F705
:10411000890F8E01082B0E94231F00C068E0802FAA
:104120000E94881F80E18A95F1F752985A9A4A9B1B
:104130001EC087E090E04A991CC0FE01EB5BFE4F79
:1041400063816623F9F0209120023091210284815D
:104150009581820F931F0E94551F811113C0529A9F
:104160005A9A7894DF91CF911F910F91089500C0D2
:10417000DECF019729F4529A5A9A789480E0F2CFD0
:1041800000C0D9CF0E941B1F80E28A95F1F75A9890
:10419000529A80E18A95F1F7CB5BDE4F6881662306
:1041A00051F0209120023091210289819A81820F61
:1041B000931F0E94A91F0E94231F789481E0D2CFF1
:1041C00090932B0280932A02089590934403809346
:1041D000430308950E946816811103C080913E0335
:1041E0000895E0914303F0914403309721F001904A
:1041F000F081E02D099480E00895E0914303F0916F
:104200004403309721F00280F381E02D0994089552
:1042100020914103309142032817390771F09093A0
:10422000420380934103E0914303F09144033097AC
:1042300021F00680F781E02D0994089520913F0335
:10424000309140032817390771F090934003809311
:104250003F03E0914303F0914403309721F0008441
:10426000F185E02D09940895AC019C012E5F3F4F2C
:10427000485F5F4F80E02417350709F40895F9017E
:1042800091919F019923B9F38F5FF5CF9C0166232C
:1042900051F0FC013296285F3F4F8191861729F03B
:1042A000E217F307D1F780E0089581E008959C01BB
:1042B000FC0132968FEF90E04191461751F08F3F0D
:1042C00019F4411101C0892F9F5F9630A9F78F3FE4
:1042D00009F40895280F311D87FD3A95F90162838D
:1042E00008959C01FC013296285F3F4F819186130F
:1042F00003C0DF0111971C92E217F307B9F7089585
:104300000C9457210C947121FC01329686E0DF0158
:104310001D928A95E9F7089508950C948C218111D6
:1043200005C081E0809345030C948D2182E0FACF93
:1043300083E0809345030C948D210C948F2181E0C0
:10434000809345030C948D210C949F21089508952A
:104350000C94A721089508950C94A621CF930E9450
:10436000AA210E94DE150E94AB21C0E08C2F0E9482
:10437000AA14811105C0CF5FCA30C1F7CF9108954B
:1043800081E0FCCF08951F921FB61F9211248F93D6
:104390009F93AF93BF9380914603811113C0809187
:1043A000900590919105A0919205B0919305419649
:1043B000A11DB11D8093900590939105A093920546
:1043C000B0939305BF91AF919F918F911F901FBEA6
:1043D0001F90189580919805843031F10E943A061B
:1043E0001092460388E190E020E40FB6F894A89577
:1043F000809360000FBE2093600083B7817F84604C
:1044000083BF83B7816083BF7894889583B78E7F9D
:1044100083BF0FB6F894A89580916000886180935F
:104420006000109260000FBE08950E94090A0C946B
:10443000400682E084BD93E095BD9AEF97BD8093DE
:104440006E0008952FB7F894809190059091910592
:10445000A0919205B09193052FBF0895CF93DF935C
:1044600000D000D0CDB7DEB78FB7F894209190057B
:1044700030919105409192055091930529833A839B
:104480004B835C838FBF69817A818B819C810F9084
:104490000F900F900F90DF91CF9108959C014FB72F
:1044A000F8948091900590919105A0919205B0911A
:1044B00093054FBF821B930B08950F931F93CF93C8
:1044C000DF9300D000D0CDB7DEB7462F572FBC0109
:1044D0002FB7F8948091900590919105A091920545
:1044E000B09193052FBF8C019D01041B150B260B6A
:1044F000370BC901B8010F900F900F900F90DF910B
:10450000CF911F910F91089578941F921FB61F921B
:1045100011248F939F93AF93BF93809190059091B7
:104520009105A0919205B09193050196A11DB11D31
:104530008093900590939105A0939205B093930575
:10454000BF91AF919F918F911F901FBE1F901895A3
:1045500087E797E7909301088093000888E19AE045
:104560000FB6F894A895809360000FBE90936000FA
:10457000FFCF8091520308950895CF93DF93D82FF2
:10458000C92F81E08093E9008FEF9091E80081507E
:1045900095FD06C095ED9A95F1F700008111F5CFD4
:1045A0008091E80085FF16C050E040E068E070E0D0
:1045B0008D2F9C2F0E94C7248091E8008E778093D6
:1045C000E80088E0ED2FFC2FAAE4B3E001900D9203
:1045D0008A95E1F7DF91CF91089580934703709317
:1045E00049036093480380919805843001F582E087
:1045F0008093E9008FEF9091E800815095FD06C00F
:1046000095ED9A95F1F700008111F5CF8091E800C2
:1046100085FF0DC050E040E063E070E087E493E088
:104620000E94C7248091E8008E778093E800089567
:10463000BC0184E00C94ED22BC0183E00C94ED22DB
:10464000089580919705811109C00E944F260E940C
:10465000AC268091E20084608093E200089510927D
:10466000970508950C949F216091940581E0611154
:1046700001C080E00C9498219091980581E09430DD
:1046800009F080E0609194050C949D2142E061EC7A
:1046900081E00E94CB2542E261EC82E00E94CB25C2
:1046A0009091980581E0943009F080E06091940544
:1046B0000C948F2180919A05893089F148F48230D9
:1046C00009F49EC0833009F459C0813041F0089547
:1046D0008A3009F485C08B3009F46BC0089580914D
:1046E0009905813A09F049C08091E800877F80935D
:1046F000E80080919D0590919E05892B61F468E00A
:104700008AE493E070E00E9416258091E8008B77A0
:104710008093E800089560E090E080E0F3CF80911E
:104720009905813251F580919D0590919E050297E2
:1047300020F58091E800877F8093E8008091E80071
:1047400082FF17C09091F3008091F200029731F43C
:104750008091F100813011F0863021F48091F100D8
:10476000809352038091E8008B778093E8000C944B
:10477000FF25809198058111E1CF089580919905D9
:10478000813AD9F780919D0590919E05892BA9F7D3
:104790008091E800877F8093E8008091E80080FFA7
:1047A000FCCF809170018093F1008091E8008E77BA
:1047B000DCCF80919905813201F780919D05909120
:1047C0009E05892BD1F68091E800877F8093E800D1
:1047D0000E94FF2580919B05809370010C94090A2B
:1047E00080919905813249F68091E800877F809316
:1047F000E8000E94FF2580919C0580935303089553
:1048000080919905813A09F0B8CF8091E800877FBF
:104810008093E8008091E80080FFFCCF80915303F3
:10482000C2CF84B7877F84BF0FB6F894A8958091D4
:104830006000886180936000109260000FBE80E885
:1048400090E00FB6F89480936100909361000FBEE2
:104850000C94A4210E944F260E94AC26E2EEF0E0C8
:1048600080818460808378940C94342984E691E07C
:104870000C94E520809198058530A9F480919805E5
:10488000853011F00C9415220E94EA218091960542
:104890008823A1F30E94AE21882381F30E94B124D2
:1048A0000E94090AEBCF089508950C945724FC0147
:1048B000CB01DA012F2F332723303105D1F070F4EB
:1048C0002130310509F43EC02230310569F48BE313
:1048D00090E026E138E02D933C9308952132310594
:1048E000E9F02232310521F190E080E030E020E073
:1048F000F2CFCF019927E13059F08230910559F07C
:10490000E2E1F8E0892B81F7849190E09F01E3CF09
:10491000E0E0F8E0F9CFE0EFF7E0F6CF892BB9F06F
:104920006130710509F789E090E021E438E0D3CFE8
:10493000892B91F061307105B9F682E390E023E6AE
:1049400038E0C9CF82E190E021E538E0C4CF89E0CA
:1049500090E028E238E0BFCF80E490E025E938E03D
:10496000BACF80E189BD82E189BD09B400FEFDCFE7
:104970008091D8008F7D8093D8008091E000826084
:104980008093E0008091E00081FDFCCF0895AF921C
:10499000BF92CF92DF92FF920F931F93CF93DF933B
:1049A0006C01EB018A010E941E26F82E811123C0A2
:1049B0000115110539F0F80180819181C81BD90BCF
:1049C000C80ED91EB12CA12C2097A9F08091E80027
:1049D00085FD22C08091E8008E778093E800011564
:1049E0001105A1F0F80180819181A80EB91EB18254
:1049F000A08285E0F82E8F2DDF91CF911F910F912E
:104A0000FF90DF90CF90BF90AF9008950E941E2638
:104A10008823D1F2F82EEFCFF60181916F018093B8
:104A2000F1002197FFEFAF1ABF0ACECFFC01CB01F7
:104A300020919F053091A0052617370790F0009729
:104A400029F42091E8002E772093E80040E00097B9
:104A500051F4411108C08091E80082FF31C080E02C
:104A60000895C901F3CF209198052223A9F125309B
:104A7000A9F12091E80023FD2DC02091E80022FD3E
:104A8000EACF2091E80020FFE2CF3091F30020919F
:104A9000F200009719F02830310558F041E0283035
:104AA000310509F040E02091E8002E772093E800DE
:104AB000CECF41914093F10001972F5F3F4FE9CF57
:104AC00080919805882341F0853041F08091E8007D
:104AD00083FFC1CF81E0089582E0089583E00895C7
:104AE000FC01CB0120919F053091A00526173707C7
:104AF00090F0009729F42091E8002E772093E800A9
:104B000040E0009751F4411108C08091E80082FF15
:104B100032C080E00895C901F3CF20919805222387
:104B2000B1F12530B1F12091E80023FD2EC0209194
:104B3000E80022FDEACF2091E80020FFE2CF30918B
:104B4000F3002091F200009719F02830310558F059
:104B500041E02830310509F040E02091E8002E774F
:104B60002093E800CECF44914093F1003196019715
:104B70002F5F3F4FE8CF80919805882341F0853023
:104B800041F08091E80083FFC0CF81E0089582E08A
:104B9000089583E00895982F973028F08F708093C0
:104BA000E90081E008959093E900242F762F50E0EA
:104BB000981731F07091EC002091ED005091F000C9
:104BC00021FD02C09F5FE8CF3091EB003E7F309324
:104BD000EB003091ED003D7F3093ED003091EB0024
:104BE00031603093EB007093EC002093ED00509314
:104BF000F0002091EE0027FDE5CF80E00895809140
:104C0000990587FF13C08091E80082FF06C080915C
:104C1000E8008B778093E80004C0809198058111AB
:104C2000F2CF0895809198058823D9F38091E80008
:104C300080FFF8CF8091E8008E77ECCF2091E400E0
:104C40003091E50095E6A9012091EC00822F81705A
:104C500020FF06C08091E80080FF06C080E0089534
:104C60002091E80022FD1AC080919805882389F0E0
:104C7000853089F08091EB0085FD0FC02091E40024
:104C80003091E50042175307F9F29150E1F684E0C4
:104C9000089582E0089583E0089581E008950E94D8
:104CA000BD260E94C526E0EEF0E080818160808311
:104CB000E8EDF0E080818F77808319BCA7EDB0E04C
:104CC0008C918E7F8C9380818F7E8083109297054C
:104CD00008950F931F93CF93DF930E94BD260E94E8
:104CE000C526C8EDD0E088818F7788838881806869
:104CF000888388818F7D888319BC109298051092D3
:104D00009405109296051092950500EE10E0F801BA
:104D100080818B7F808388818160888342E060E02E
:104D200080E00E94CB25E1EEF0E080818E7F8083E1
:104D3000E2EEF0E080818160808380818860808302
:104D4000F80180818E7F8083888180618883DF91F4
:104D5000CF911F910F910895E8EDF0E080818F7E53
:104D60008083E7EDF0E080818160808384E082BF12
:104D700081E0809397050C946926E8EDF0E080814E
:104D80008E7F80831092E20008951092DA001092D4
:104D9000E10008951F920F920FB60F9211242F93E6
:104DA0003F934F935F936F937F938F939F93AF93B3
:104DB000BF93EF93FF938091E10082FF0BC080913E
:104DC000E20082FF07C08091E1008B7F8093E100C9
:104DD0000E9433298091DA0080FF19C08091D800A9
:104DE00080FF15C08091DA008E7F8093DA00809179
:104DF000D90080FF94C080E189BD82E189BD09B4FA
:104E000000FEFDCF81E0809398050E9421238091D0
:104E1000E10080FF19C08091E20080FF15C0809101
:104E2000E2008E7F8093E2008091E20080618093B7
:104E3000E2008091D80080628093D80019BC85E0A0
:104E4000809398050E9434238091E10084FF29C05B
:104E50008091E20084FF25C080E189BD82E189BDA7
:104E600009B400FEFDCF8091D8008F7D8093D800DB
:104E70008091E1008F7E8093E1008091E2008F7E3F
:104E80008093E2008091E20081608093E200809153
:104E90009405882309F449C084E0809398050E9412
:104EA0003C238091E10083FF29C08091E20083FFD1
:104EB00025C08091E100877F8093E10082E08093AC
:104EC0009805109294058091E1008E7F8093E10017
:104ED0008091E2008E7F8093E2008091E200806109
:104EE0008093E20042E060E080E00E94CB25809168
:104EF000F00088608093F0000E943223FF91EF91D0
:104F0000BF91AF919F918F917F916F915F914F91E1
:104F10003F912F910F900FBE0F901F90189519BCC5
:104F2000109298050E942F2372CF8091E30087FD95
:104F300002C081E0B2CF83E0B0CF1F920F920FB6D4
:104F40000F9211242F933F934F935F936F937F930F
:104F50008F939F93AF93BF93CF93DF93EF93FF9381
:104F6000D091E900DF708091EC00C82FC17080FD06
:104F7000C0E81092E9008091F000877F8093F000F4
:104F800078940E94E1271092E9008091F0008860F7
:104F90008093F000CD2BCF70C093E900FF91EF918B
:104FA000DF91CF91BF91AF919F918F917F916F9141
:104FB0005F914F913F912F910F900FBE0F901F90D7
:104FC00018951F93CF93DF93CDB7DEB7AA970FB68F
:104FD000F894DEBF0FBECDBF89E995E0FC010196D4
:104FE0002091F100208325E0813A9207B9F70E94D1
:104FF0005A238091E80083FF1EC18091990590910A
:105000009A059A3008F017C1E92FF0E0E851F34D06
:105010000C947A29803899F0823809F00CC180917B
:105020009D058F70873008F006C18093E90080915C
:10503000EB0085FB882780F91092E90006C080917B
:10504000950590919605911182609091E800977F67
:105050009093E8008093F1001092F1008091E800B5
:105060008E77E5C0882309F4D3C0823009F0E3C00D
:1050700080919B058111D6C080919D058F702FEF87
:10508000280F263008F0D7C08093E9002091EB006C
:1050900020FFC8C0933031F48091EB008062809390
:1050A000EB00C0C09091EB0090619093EB0021E089
:1050B00030E001C0220F8A95EAF72093EA001092AF
:1050C000EA008091EB008860EACF8111B4C01091B2
:1050D0009B051F778091E3008078812B8093E3000C
:1050E0008091E800877F8093E8000E94FF258091EF
:1050F000E80080FFFCCF8091E30080688093E300AC
:1051000082E0111183E08093980595C08058823029
:1051100008F091C080919B0590919C058C3D23E007
:105120009207A1F583E08A838AE289834FB7F894D6
:10513000DE01139620E03EE051E2E32FF0E05093D1
:105140005700E49120FF03C0E295EF703F5FEF70DE
:105150008E2F90E0EA30C0F0C7968D939D932F5F1D
:10516000243159F74FBF8091E800877F8093E80092
:105170006AE270E0CE0101960E9416258091E80057
:105180008B778093E80057C0C096E7CF60919D056C
:1051900070919E05AE014F5F5F4F0E945524BC0188
:1051A000892B09F448C08091E800877F8093E8004C
:1051B00089819A810E947025E1CF8038E1F5809144
:1051C000E800877F8093E800809194058093F10048
:1051D00045CF811130C090919B05923060F5809150
:1051E000E800877F8093E800909394050E94FF2554
:1051F00080919405882311F084E005C08091E3003C
:1052000087FDFACF81E0809398050E94462313C062
:1052100080919B05813079F481E0933009F080E042
:10522000809396051092E9008091E800877F809333
:10523000E8000E94FF258091E80083FF0AC080916A
:10524000E800877F8093E8008091EB008062809384
:10525000EB00AA960FB6F894DEBF0FBECDBFDF916C
:10526000CF911F9108950895CF9380919805882339
:10527000A1F0C091E900CF709091EC00892F81706E
:1052800090FD80E8C82B1092E9008091E80083FD32
:105290000E94E127CF70C093E900CF9108950E944A
:1052A0004F261092980508958091E300881F882763
:1052B000881F0895991B79E004C0991F961708F07C
:1052C000961B881F7A95C9F780950895AA1BBB1B6A
:1052D00051E107C0AA1FBB1FA617B70710F0A61BF6
:1052E000B70B881F991F5A95A9F780959095BC0117
:1052F000CD010895EE0FFF1F0590F491E02D099464
:10530000FB01DC0102C005900D9241505040D8F7DE
:105310000895FB01DC0104C08D910190801921F4F6
:1053200041505040C8F7881B990B0895FB01DC01E0
:1053300002C001900D9241505040D8F70895FB01F2
:10534000DC0101900D920020E1F70895AEE0B0E09D
:10535000ECEAF9E20C94A22C0D891E898F89988DB4
:1053600026E02C831A83098397FF02C080E090E82F
:1053700001979E838D83AE01455E5F4F698D7A8D67
:10538000CE0101960E94D6294D815E8157FD0AC04B
:105390002F813885421753070CF49A01020F131F0F
:1053A000F80110822E96E4E00C94BE2CAFE0B0E041
:1053B000ECEDF9E20C94942C7C013B018A01DC01B8
:1053C00017961C921E92169713968C9181FFC3C15B
:1053D0009AE0292EFE0131964F01D70113969C9138
:1053E000F30193FD859193FF81913F01882309F497
:1053F00048C1853239F493FD859193FF81913F0136
:10540000853229F4B70190E00E94C42BE6CFB12C7D
:10541000412C512CBFE1B51538F08B3209F188F4DD
:10542000803201F1833221F157FC3AC020ED280F80
:105430002A3040F556FE1FC0B29C200D1124B22E1A
:1054400006C08D3291F0803379F7689450F8F301FB
:1054500093FD859193FF81913F018111DBCF20C0A6
:10546000689451F8689452F8F2CF689453F8EFCFEB
:10547000689454F8ECCF429C200D1124422E68947D
:1054800055F8E5CF8E3229F456FCFBC0689456F8E7
:10549000DECF8C3619F4689457F8D9CF8836B9F234
:1054A000982F9F7D95549330C0F08336A1F18337B8
:1054B000C1F1833509F05BC0D801CD90DD908D013D
:1054C0006B2D70E056FC02C06FEF7FEFC6010E94AB
:1054D000AE2B5C01689457F80AC00C5F1F4FEFE3D6
:1054E000E983AA24A394B12C6401E89457F853FCEF
:1054F00004C04A141B0409F018F5342CA114B1049B
:1055000031F5332009F469CFB70180E290E00E94C1
:10551000C42B3A94F6CFD8018C9189830E5F1F4F2C
:10552000E0CFF801C190D1908F016B2D70E056FC57
:1055300002C06FEF7FEFC6010E94B92B5C01D5CF8F
:10554000B70180E290E00E94C42B4A94D2CFF601CA
:1055500057FC859157FE81916F01B70190E00E9441
:10556000C42B31103A94B1E0AB1AB108C7CF8436DE
:1055700019F0893609F074C0F80157FE6AC06191CC
:105580007191819191918F01E52DEF76DE2E97FF3C
:1055900009C090958095709561957F4F8F4F9F4F73
:1055A0006894D7F82AE030E0A4010E94F42BC82EBA
:1055B000C818AC2C5D2CD6FE0CC0E89450F8CB1467
:1055C00040F4D4FE05C0D2FC03C05D2D5E7E552E96
:1055D000AB2C54FE98C0FE01EC0DF11D8081803390
:1055E00009F08AC0652D697E562E752D7870372E8C
:1055F00053FC98C050FE92C0BC2CA41418F44C0C60
:10560000B42CBA1854FE94C0B70180E390E00E9415
:10561000C42B52FE09C088E790E051FE02C088E525
:1056200090E0B7010E94C42BCB1408F48DC0CA943B
:10563000D12C8FEFC81AD80AC80CD91CD6018E916C
:105640006D01B70190E00E94C42B8C149D04B1F74A
:1056500058CF61917191072E000C880B990B93CF55
:10566000D52CE894D4F82AE030E0853739F1F52DCF
:10567000F97FDF2E8037A9F058F48835A9F08F36EE
:10568000D9F0F701868197812F96E2E10C94B02C36
:105690008837B9F7D4FE02C06894D2F820E130E030
:1056A0000DC06894D4F8F6CF54FE03C02F2F2660A7
:1056B000D22E20E132E002C028E030E0F801D7FE2F
:1056C00015C041915191619171914C875D876E87B1
:1056D0007F878F01A4016C857D858E859F850E94C3
:1056E000F42BC82EC818E894D7F863CF8191919114
:1056F000AC0170E060E0E9CF52FC02C0A39475CF2A
:10570000A394A39472CF852D867809F46ECFF6CF3B
:10571000B70180E290E00E94C42BA394A414C0F3CC
:10572000312C70CF342C3A18A41408F46BCFF8CF76
:10573000852D867809F478CF8BE251FE80E257FC04
:105740008DE2B70190E06ECFB70180E390E00E9458
:10575000C42BBA9469CF8FEF9FEF96CFFC010590D1
:10576000615070400110D8F7809590958E0F9F1F63
:105770000895FC016150704001900110D8F78095A8
:1057800090958E0F9F1F08950F931F93CF93DF93D4
:10579000182F092FEB018B8181FD09C01FEF0FEF3F
:1057A000812F902FDF91CF911F910F91089582FF4C
:1057B00014C02E813F818C819D81281739073CF4CC
:1057C000E881F981CF0101969983888310838E81C6
:1057D0009F8101969F838E83E3CFE885F985812F92
:1057E0000995892BA1F3DACFFA01AA27283051F1C4
:1057F000203181F1E8946F936E7F6E5F7F4F8F4F02
:105800009F4FAF4FB1E03ED0B4E03CD0670F781F60
:10581000891F9A1FA11D680F791F8A1F911DA11D45
:105820006A0F711D811D911DA11D20D009F468947E
:105830003F912AE0269F11243019305D3193DEF626
:10584000CF010895462F4770405D4193B3E00FD0DC
:10585000C9F7F6CF462F4F70405D4A3318F0495DC7
:1058600031FD4052419302D0A9F7EACFB4E0A695AA
:105870009795879577956795BA95C9F700976105CC
:10588000710508959B01AC010A2E06945795479522
:1058900037952795BA95C9F7620F731F841F951F17
:1058A000A01D0895F999FECF92BD81BDF89A992760
:1058B00080B50895A8E1B0E042E050E00C94862C59
:1058C000262FF999FECF92BD81BDF89A019700B4B9
:1058D000021639F01FBA20BD0FB6F894FA9AF99A59
:1058E0000FBE08950396272F0E94612C0E94602C02
:1058F000252F0E94612C242F0C94612C0196272FB8
:105900000E94612C0C94602CDC01CB01FC01F99904
:10591000FECF06C0F2BDE1BDF89A319600B40D92FB
:1059200041505040B8F708952F923F924F925F92A6
:105930006F927F928F929F92AF92BF92CF92DF929F
:10594000EF92FF920F931F93CF93DF93CDB7DEB704
:10595000CA1BDB0B0FB6F894DEBF0FBECDBF099498
:105960002A88398848885F846E847D848C849B84EF
:10597000AA84B984C884DF80EE80FD800C811B81FD
:10598000AA81B981CE0FD11D0FB6F894DEBF0FBE2C
:10599000CDBFED010895F894FFCF8F1C931C971C89
:1059A000A51CA91CAD1CB11CB71CBF1CC31CC71C6B
:1059B000CB1CD71CDB1CDF1CE31CE91C071DF11CE6
:1059C000A11CCF1CD31CBB1CED1CFD1C101D141DE9
:1059D0000A2832281B2932281B29652886281B29DA
:0459E000DD28E928AD
:1059E400808182838485868788898A8B8C8D8E8F3B
:1059F4009091929394A0A1A2A3A4A5A6A7A8A9AAB2
:105A0400ABACADAEAFB0B1B2B3B4C0C1C2C3C4C528
:105A1400C6C7C8C9CACBCCCDCECFD0D1D2D3D4007F
:105A2400FA00CD02010000000100000000000000A7
:105A34000501000000040600000000000000210031
:105A44007F220003B922BD2220231C231823BC2259
:105A5400014C617965723A2044656661756C740025
:105A64004C617965723A205261697365004C6179C1
:105A740065723A204C6F776572004C617965723AB1
:105A84002041646A757374004C617965723A2055DB
:105A94006E6465662D256C6400E200E900EA00B5D9
:105AA40000B600B700CD008301CC008A01920194B6
:105AB400012102230224022502260227022A02B31C
:105AC40000B4006F007000E200E900EA00B500B61F
:105AD40000B700CD008301CC008A0192019401211A
