:100000000C9445040C9462040C9462040C94371F05
:100010000C9462040C9462040C9462040C946204C8
:100020000C9462040C9462040C94F5250C94C8267C
:100030000C9437210C9462040C9462040C946204B6
:100040000C9462040C9462040C9462040C94620498
:100050000C9462040C94F8210C9462040C946204D5
:100060000C9462040C9462040C9462040C94620478
:100070000C9462040C9462040C9462040C94620468
:100080000C9462040C9462040C9462040C94620458
:100090000C9462040C9462040C9462040C94620448
:1000A0000C9462040C9462040C94620429001E00F7
:1000B0001F002000210022002B0014001A0008005D
:1000C00015001700E00004001600070009000A00F0
:1000D000E1001D001B000600190005000000E20001
:1000E000E30001512C002F003500270026002500D9
:1000F000240023002D00130012000C0018001C0027
:10010000340033000F000E000D000B00E500380036
:1001100037003600100011000000E7002A000251ED
:100120002800300001000100010001000100010071
:100130003A003B003C003D003E003F0035001E02FF
:100140001F02200221022202010001000100010021
:100150000100010000000100010001000100010098
:100160000100010001000100010001004500440000
:1001700043004200410040003502270226022502CA
:1001800024022302310230022F022E022D0200002F
:100190000000010001000100010001000100010058
:1001A000010001000100010035001E001F002000B9
:1001B000210022003A003B003C003D003E003F0091
:1001C000400041004200430044004500000001009F
:1001D0000100010001000100010001000100010017
:1001E0000100010001002700260025002400230053
:1001F00000004F005200510050000000310030005C
:100200002F002E002D002E02000001000100010031
:1002100001000100000000000000000000000000DC
:1002200000000000000000000000000000000000CE
:1002300000000000000000000000000000000000BE
:1002400000000000000001000100010001000000AA
:10025000000000000000000000000000000000009E
:10026000000000000000000000000000000000008E
:10027000000000000000000000000000000000007E
:1002800000000100010001000100000000AE00AF0D
:1002900000DA0281FFD9F1DB20A4A62EAF00A0C0B6
:1002A00000A1C800AED580A81FD300408D14200047
:1002B0000000000000003E5B4F5B3E003E6B4F6B5A
:1002C0003E001C3E7C3E1C00183C7E3C18001C5727
:1002D0007D571C001C5E7F5E1C0000183C1800004F
:1002E000FFE7C3E7FF00001824180000FFE7DBE783
:1002F000FF0030483A060E00262979292600407F63
:1003000005050700407F05253F005A3CE73C5A00A1
:100310007F3E1C1C0800081C1C3E7F0014227F220C
:1003200014005F5F005F5F0006097F017F000066C9
:1003300089956A0060606060600094A2FFA29400EA
:1003400008047E04080010207E20100008082A1CE3
:100350000800081C2A0808001E10101010000C1EAF
:100360000C1E0C0030383E383000060E3E0E0600E3
:1003700000000000000000005F0000000007000710
:100380000000147F147F1400242A7F2A12002313F4
:100390000864620036495620500000080703000038
:1003A000001C224100000041221C00002A1C7F1C6E
:1003B0002A0008083E080800008070300000080885
:1003C0000808080000006060000020100804020017
:1003D0003E5149453E0000427F4000007249494974
:1003E00046002141494D33001814127F1000274563
:1003F000454539003C4A494931004121110907006E
:10040000364949493600464949291E000000140072
:1004100000000040340000000008142241001414C1
:1004200014141400004122140800020159090600A6
:100430003E415D594E007C1211127C007F494949B2
:1004400036003E41414122007F4141413E007F490B
:10045000494941007F09090901003E4141517300AA
:100460007F0808087F0000417F4100002040413F95
:1004700001007F08142241007F40404040007F027D
:100480001C027F007F0408107F003E4141413E0076
:100490007F09090906003E4151215E007F091929A3
:1004A000460026494949320003017F0103003F40CD
:1004B00040403F001F2040201F003F4038403F0089
:1004C0006314081463000304780403006159494D60
:1004D0004300007F41414100020408102000004118
:1004E00041417F00040201020400404040404000BE
:1004F0000003070800002054547840007F2844443B
:100500003800384444442800384444287F00385494
:100510005454180000087E0902001824241C780096
:100520007F080404780000447D4000002040403DE6
:1005300000007F102844000000417F4000007C0440
:10054000780478007C080404780038444444380077
:100550007C1824241800182424187C007C08040427
:10056000080048545454240004043F4424003C40F0
:1005700040207C001C2040201C003C4030403C00BF
:100580004428102844004C9090907C004464544CC3
:1005900044000008364100000000770000000041E0
:1005A000360800000201020402003C2623263C001B
:1005B0000080C0C0E06060E0E00000FFFE0000C717
:1005C0008E0000C0C00080C0C0C0C00080C0C0C0DD
:1005D000C000000080C0C0C0C080000000C0C000DB
:1005E00080C0C0C0C0000060FFFE6060400000002E
:1005F000000000000000FFFE0000C78E0000FFFEAC
:100600000000800000000080000000E0E06060600A
:10061000604000000080C0E0606060E0C0800000DA
:100620000000000000000000000000000000E0F0FA
:10063000F0F0E0ECEEF7F37020007C7C7C7E007E36
:100640007E7E7F7F7F000080C0E07E5B4F5BFEC0D0
:100650000000C000DCD7DEDEDED7DC00C00000001A
:10066000000000000000000000000000000000008A
:10067000FFFF010000000000000000FFFF0000FF7E
:10068000FF0000FFFF03010000FFFF03010000FF68
:10069000FF0000FFFF333030333F3F0000FFFF0318
:1006A000010000FFFF000000FFFF0000000000004D
:1006B000000000000000FFFF0000FFFF0000FFFF40
:1006C00000007FFFC0C0C0FFFF00000F0F0C0C0C2C
:1006D0001CF8F00000C7EF7C3838387CEFC700000A
:1006E00000000000000000000000000000000F1FDC
:1006F0003F7F7F7F7F7F3F1E0C001F1F1F3F003FFC
:100700003F3F7F7F7F00307B7F7830202030787FB5
:100710003B0003000F7F0F0F0F7F0F00030000004F
:1007200000000000000000000000000000000000C9
:1007300003070C0C1C1818181800000F1F00000FDE
:100740001F00000F1F000000000F1F000000000F1F
:100750001F0000070F1C1818181C0E00000F1F00A8
:100760000000000F1F0000000F1F18100000000005
:100770000000000000000F1F00000F1F00000F1FEF
:10078000000070E0C0C0E17F3F00000E1C18181888
:100790001C0F070000070F1C1818181C0F0700007B
:1007A0000000000000000000000000000000000049
:1007B0000000000000000000000000000000000039
:1007C0000000000000000000000000000000000029
:1007D0000000000000000000000000000000000019
:1007E0000000000000000000000000000000000009
:1007F0000E034C0069006C007900350038000000E1
:1008000010036C0069006C00690075006D007300D6
:1008100000000403090409022200010100A0FA09F2
:10082000040000010301010009211101000122401F
:100830000007058103080001120100020000000802
:10084000D8042DEB00010102000105010906A101F8
:10085000050719E029E715002501950875018102B2
:100860009501750881010507190029FF150026FF6C
:10087000009506750881000508190129059505757B
:10088000019102950175039101C011241FBECFEFA4
:10089000DAE0DEBFCDBF11E0A0E0B1E0E8E4F8E5CA
:1008A00002C005900D92AE3CB107D9F725E0AEEC41
:1008B000B1E001C01D92A234B207E1F70E943A18DC
:1008C0000C94FD2B0C94000080912702909128023B
:1008D000A0912902B0912A0284309105A105B105A9
:1008E000E1F128F50097A105B10571F16DE871E01E
:1008F00082309105A105B10549F1BF93AF939F9354
:100900008F9388EA91E09F938F931F9288E18F9352
:1009100085EF92E09F938F930E94D8288DB79EB762
:100920000A960FB6F8949EBF0FBE8DBF13C08830D5
:100930009105A105B10529F08E309105A105B105FC
:10094000E1F66AE971E002C061E771E085EF92E0EB
:100950000E94D12885EF92E0089560E871E0F6CF1B
:1009600080E091E00895089585EE91E0089580ED8E
:1009700091E008950F9303E022E041E00E944005DA
:100980000F910895CF93C82F0E94E715811101C0E0
:10099000C2E08C2FCF9108950E94E715882389F03B
:1009A0000E94640460E00E94FA190E94B40460E0AE
:1009B0000E94FA190E94B70460E00E94FA1980E0D0
:1009C00008950E94B00460E00E94DE19F8CFFB0198
:1009D000228121110E94B30481E0089581E00895ED
:1009E0000C94E70408950C94F2041F93CF93DF93C3
:1009F00000D000D00F92CDB7DEB749835A836B8306
:100A00003091FE0189819A8131111DC06623B9F0B0
:100A10002223A9F00E940D0C182F682F89819A813A
:100A20000E94B40B69817A81812F0F900F900F90F3
:100A30000F900F90DF91CF911F910C9492120E9412
:100A4000E30B182FEFCF0E940D0C69817A81EDCF57
:100A5000FC01262F408151816281738184810C9435
:100A6000F50481E00895CF93DF93D82FC92F60E07C
:100A70000E9428056D2F7C2FDF91CF910C94F304F9
:100A80008F929F92AF92BF92CF92DF92EF92FF929E
:100A90000F931F93CF93DF9300D000D0CDB7DEB775
:100AA0006B017C0181E090E0A0E0B0E04C015D01D1
:100AB00004C0880C991CAA1CBB1C4A95D2F7B5012E
:100AC000A4014C015D0104C0880C991CAA1CBB1C2C
:100AD0002A95D2F7482959296A297B2904C0880F09
:100AE000991FAA1FBB1F0A95D2F78A019B010C21EF
:100AF0001D212E213F210417150726073707F9F47A
:100B00009C01AD012C293D294E295F2929833A8377
:100B10004B835C8369817A818B819C810F900F90DC
:100B20000F900F90DF91CF911F910F91FF90EF9059
:100B3000DF90CF90BF90AF909F908F900895809559
:100B40009095A095B0954C015D018C209D20AE2024
:100B5000BF2089829A82AB82BC82DCCF0C942414A1
:100B60000C94271408950E949A090E94B2052FEF51
:100B700084E39CE0215080409040E1F700C00000F9
:100B80000C941C220F931F93CF93DF938C0161E091
:100B90000E942805EC01B8010E94F0048823A9F105
:100BA000B801CE010E94291D882379F1B801CE0138
:100BB0000E94971B882349F1B801CE010E94931C23
:100BC000882319F1F8018281882361F0CB35FDE596
:100BD000DF0721F170F4C115ECE5DE07A1F0CF3D90
:100BE000DC45C9F0C801DF91CF911F910F910C94A2
:100BF000EE04CC358DE5D807A1F0CD35DD4591F774
:100C00000E942510EFCF0E94B30580E0DF91CF91C5
:100C10001F910F9108950E94D910F7CF0E942E10B6
:100C2000E1CF0E943110DECF0E941C210E942E06CF
:100C30000C94291B0E9431060C94202108950C94D9
:100C40001E0681E008950C9421060895CF93C82FC5
:100C50000E941F068C2FCF910C94230680E00C94E9
:100C600026060E945E200C9426060E945E2090912B
:100C7000FD01981721F08093FD010C94260608953C
:100C8000CF93DF93CDB7DEB72B970FB6F894DEBFC7
:100C90000FBECDBF4F83588769877A878B876111D5
:100CA0000E94730F1E8285E0FE013796DE011196C9
:100CB00001900D928A95E1F78C819D81892B89F4B1
:100CC00049815A816B817C818D819E810E948C0E2D
:100CD0002B960FB6F894DEBF0FBECDBFDF91CF913C
:100CE000089589819A8189238F3F51F3CE0101961E
:100CF0000E9431058111E4CFEBCFFC01808191810D
:100D00000C944F0CCF93C82F882329F18CEF8C0FB4
:100D1000813AA0F46C2F80914201909143010E948E
:100D2000BA20882329F08C2F0E94330F0E94930F42
:100D30008C2F0E942C0FCF910C94930F80E28C0F7C
:100D4000883048F4C77081E001C0880FCA95EAF77F
:100D50000E94540FF0CFCF910895882329F19CEF82
:100D6000980F913A20F40E94330F0C94930F90E265
:100D7000980F983050F4877091E001C0990F8A95D0
:100D8000EAF7892F0E945A0FF0CF9BE5980F933016
:100D900020F490E080E00C947C20885A873120F485
:100DA00090E080E00C94922008951F93CF93DF93FE
:100DB000182FEB010E948206209731F4812FDF91DA
:100DC000CF911F910C94AD068FE99FE00197F1F749
:100DD00000C000002197F0CF70E060E0893311F48B
:100DE00060E570E00C94D506882321F00E94540F32
:100DF0000C94930F0895882321F00E945A0F0C94AD
:100E0000930F0895BF92CF92DF92EF92FF920F93CC
:100E10001F93CF93DF9300D000D00F92CDB7DEB7F2
:100E20006C016D837983FC011281F580F2949FE05F
:100E3000F9220E944A0FE82E8823C1F0E12E1123E7
:100E4000A9F08981807F803429F08D81805E88308F
:100E500008F44BC08091120382FD47C082E00E94DB
:100E6000F40F0E944A0F91E0E82EE926B980B2946F
:100E70008FE0B822F8E0BF1609F4F3C0FB15B8F113
:100E800001E00B1508F047C08EE08B0D8F708230AB
:100E900008F475C0EB2DE850FF0B349720F40E9446
:100EA0005E200E942606EE2009F4EAC10E94460F49
:100EB00080FDE6C1F60112820E94400F0E94A40A42
:100EC000C6010E9466090E94400F0F900F900F907C
:100ED0000F900F90DF91CF911F910F91FF90EF90A6
:100EE000DF90CF90BF900C94D50AE12CBFCF29E0C2
:100EF000B21609F460C186E08B0D8F70823050F617
:100F00000D81023F09F068C189818F71111161C1A2
:100F10000E94A40ABFCF09810F702981207F11F0A0
:100F20000295007F1123A1F0002361F08D81805E86
:100F3000883018F01D81111107C0802F0E94540FB6
:100F40000E94930F8D8144C0802F0E94650FF8CFBF
:100F50008D810E94AD06002309F49CCF8D81805EB7
:100F6000883018F01D81111104C0802F0E945A0F83
:100F700003C0802F0E946B0F0E94930F8BCF0981BB
:100F80000F702981207F203211F00295007F3D8172
:100F9000332381F0313009F445C0112309F44FC0E7
:100FA000FF2009F445C0F601858180FFCBCF8F700B
:100FB00085833EC08091120382FF14C0112359F033
:100FC000002329F0802F0E94540F0E94930F80E08D
:100FD0000E9482065FCF80E00E94AD06002309F4E4
:100FE00059CFC3CF112389F0F11006C00E94760FAC
:100FF000802B0E94F4064ECF81E0F812F7CF0E94BA
:10100000760F802B0E947C0F45CFF11006C00E9406
:10101000890F802F0E94FB063DCF91E0F91609F45D
:1010200039CFF5CF112331F0E5E0EF1508F432CFD9
:10103000802FDFCFF4E0FF1508F42CCFEACFFF209C
:1010400041F30D81093349F41FEF27EE33E01150CE
:1010500020403040E1F700C000008D810E94AD06C5
:1010600019CF8981837009F050C0111113CF2D81E0
:10107000229526952770220F220F8D818F7090E088
:10108000B0E0A0E0022E04C0880F991FAA1FBB1F6A
:101090000A94D2F70D8140E050E0BA0104FF0FC07E
:1010A0004FE050E060E070E004C0440F551F661F41
:1010B000771F2A95D2F740955095609570951981C4
:1010C0001695169513701D838A019B01082B192B09
:1010D0002A2B3B2B09831A832B833C831D81698137
:1010E0007A818B819C81123051F0133059F011308C
:1010F00019F00E941C0ACECE0E94F409CBCE0E94A9
:10110000440AC8CE0E94F209C5CE8695112311F07B
:1011100089818170882309F4BDCE2D812295269581
:101120002770220F220F8D818F7090E0B0E0A0E039
:10113000022E04C0880F991FAA1FBB1F0A94D2F762
:101140000D8140E050E0BA0104FF0FC04FE050E0D5
:1011500060E070E004C0440F551F661F771F2A959A
:10116000D2F7409550956095709519811695169512
:1011700013701D838A019B01082B192B2A2B3B2BF3
:1011800009831A832B833C831D8169817A818B813A
:101190009C81123051F0133059F0113019F00E9437
:1011A000630B78CE0E943B0B75CE0E948B0B72CEE8
:1011B0000E946E0A6FCE09810F700983112329F0F6
:1011C000802F0E94A40A8D8114CF8D810E94FB067E
:1011D00089810E94D50A5ECE0D81033F60F4003FF5
:1011E000C1F0013F89F0112309F445C0F110AACEE6
:1011F00089818F718DCE0D81033FD9F0043F99F71E
:101200008091120382FF1FC089818F71112309F31E
:101210007FCE112349F014E01F1508F43BCE8981DD
:101220008F710E940A0B36CE25E02F1508F432CEBE
:10123000F6CF112329F089818F710E947F0A2ACE6F
:101240000E947A0A27CE112359F009810F71098370
:10125000802F0E94A40A63E089810E94D90F1ACED0
:1012600081E00E94F40F11E01F1508F013CE82E018
:101270000E94F40F0FCEF110E4CE89818F71A9CFB7
:101280000F900F900F900F900F90DF91CF911F91C3
:101290000F91FF90EF90DF90CF90BF9008950F9344
:1012A0001F93CF93DF93EC01688179818A810E943B
:1012B0005B0C8C010E94B30B0E94F109B801CE01B6
:1012C000DF91CF911F910F910C940207CF93DF9381
:1012D000EC018B819C81892B29F08881998189235C
:1012E0008F3F59F4DF91CF910895CE010E944F09AD
:1012F000CE01DF91CF910C943305CE010E94C2053F
:101300008111F3CF0E944A0F882361F38A818823D9
:1013100049F38091120382FDE5CF82E0DF91CF9106
:101320000C94F40F0E94730F0C94930F0E943A0FC9
:101330000C9492090E94620F0C949609282F9295A2
:101340009F70963091F060F4925F9F70923030F40D
:1013500081E0203F81F030F4283E30F080E00895B5
:101360009A5FF3CF243FD1F7089581E0283EE0F360
:10137000213FA1F7F9CF0895FC01808191810E945E
:101380004F0C0C949E09CF93DF9300D000D00F92A6
:10139000CDB7DEB70F900F900F900F900F90DF91A9
:1013A000CF910895CF93DF9300D000D000D0CDB778
:1013B000DEB726960FB6F894DEBF0FBECDBFDF9125
:1013C000CF91089508950C94E2090E94E309609377
:1013D0002B0270932C0280932D0290932E020C947A
:1013E000920908950C94E509CF93DF9300D000D0C3
:1013F000CDB7DEB769837A838B839C8380912B0280
:1014000090912C02A0912D02B0912E0229813A8157
:101410004B815C81282B392B4A2B5B2B29833A8308
:101420004B835C83CA01B9010F900F900F900F900E
:10143000DF91CF910C94E509CF93DF9300D000D0DA
:10144000CDB7DEB769837A838B839C8380912B022F
:1014500090912C02A0912D02B0912E0229813A8107
:101460004B815C81282339234A235B2329833A83D8
:101470004B835C83CA01B9010F900F900F900F90BE
:10148000DF91CF910C94E509CF93DF9300D000D08A
:10149000CDB7DEB769837A838B839C8380912B02DF
:1014A00090912C02A0912D02B0912E0229813A81B7
:1014B0004B815C81282739274A275B2729833A8378
:1014C0004B835C83CA01B9010F900F900F900F906E
:1014D000DF91CF910C94E5090C94BA040E946C0A38
:1014E00060932702709328028093290290932A0226
:1014F0000C94920960E070E0CB010C946E0A0F939B
:101500001F93CF93DF9300D000D0CDB7DEB741E07B
:1015100050E060E070E08A019B0104C0000F111FE1
:10152000221F331F8A95D2F709831A832B833C83AA
:10153000C901B8010F900F900F900F90DF91CF91DC
:101540001F910F910C946E0A0F931F93CF93DF930B
:1015500000D000D0CDB7DEB741E050E060E070E0F1
:1015600004C0440F551F661F771F8A95D2F78091DC
:10157000270290912802A0912902B0912A028A01A3
:101580009B01082B192B2A2B3B2B09831A832B83B6
:101590003C83C901B8010F900F900F900F90DF911D
:1015A000CF911F910F910C946E0A0F931F93CF93BD
:1015B000DF9300D000D0CDB7DEB741E050E060E06F
:1015C00070E004C0440F551F661F771F8A95D2F73D
:1015D00040955095609570958091270290912802D2
:1015E000A0912902B0912A028A019B0108231923A4
:1015F0002A233B2309831A832B833C83C901B80127
:101600000F900F900F900F90DF91CF911F910F913E
:101610000C946E0A0F931F93CF93DF9300D000D0EA
:10162000CDB7DEB741E050E060E070E004C0440FA9
:10163000551F661F771F8A95D2F7809127029091D8
:101640002802A0912902B0912A028A019B01082751
:1016500019272A273B2709831A832B833C83C90137
:10166000B8010F900F900F900F90DF91CF911F91C5
:101670000F910C946E0ACF93DF9300D000D0CDB7BA
:10168000DEB769837A838B839C8380912702909154
:101690002802A0912902B0912A0229813A814B8126
:1016A0005C81282B392B4A2B5B2B29833A834B8374
:1016B0005C83CA01B9010F900F900F900F90DF91DA
:1016C000CF910C946E0ACF93DF9300D000D0CDB7AA
:1016D000DEB769837A838B839C8380912702909104
:1016E0002802A0912902B0912A0229813A814B81D6
:1016F0005C81282339234A235B2329833A834B8344
:101700005C83CA01B9010F900F900F900F90DF9189
:10171000CF910C946E0ACF93DF9300D000D0CDB759
:10172000DEB769837A838B839C83809127029091B3
:101730002802A0912902B0912A0229813A814B8185
:101740005C81282739274A275B2729833A834B83E3
:101750005C83CA01B9010F900F900F900F90DF9139
:10176000CF910C946E0A0895292F220FE22FE90FD2
:10177000EE0FE80F8E2F877041E001C0440F8A956D
:10178000EAF7E695E695E69585E0E89FF0011124F5
:10179000E150FE4F30E020E070E05191DF01119701
:1017A000CB01022E02C0969587950A94E2F78170CC
:1017B00081958527842385278C932F5F3F4F253084
:1017C000310559F70895292F220FE22FE90FEE0F67
:1017D000E80F9E2F9770E695E695E69585E0E89FE1
:1017E000F0011124E150FE4F50E040E080E02191F3
:1017F00030E0092E02C0369527950A94E2F7217051
:101800003327042E01C0220F0A94EAF7822B4F5F80
:101810005F4F4530510559F70895BF92CF92DF923F
:10182000EF92FF920F931F93CF93DF938C01C090A1
:101830002702D0902802E0902902F0902A0280919D
:101840002B0290912C02A0912D02B0912E02C82A59
:10185000D92AEA2AFB2ACFE1D0E0BC2ED701C60163
:101860000C2E04C0B695A795979587950A94D2F744
:1018700080FD0EC0219788F7B12C8B2DDF91CF9181
:101880001F910F91FF90EF90DF90CF90BF90089540
:10189000B8018C2F0E94A612019761F3EECFCF936F
:1018A000DF93D82FC92F0E940D0C6D2F7C2FDF9155
:1018B000CF910C94A6121F93CF93DF93162FD72F9F
:1018C0009091FE01992339F0862F972FDF91CF91C8
:1018D0001F910C944F0C882391F0862F972F0E9414
:1018E0000D0CC82F682F812F9D2F0E94B40B612FE4
:1018F0007D2F8C2FDF91CF911F910C94A612862FF4
:10190000972F0E94E30BC82FF2CF1F93CF93DF9343
:10191000E0912F0216E0809130028E1304C0DF9117
:10192000CF911F910895CE2FD0E01E9FF00111247A
:10193000EF5CFD4F4081518162817381848195818B
:101940000E94D209FE013196E770E5CF4091610215
:10195000509162026091630270916402809165020D
:10196000909166020C94D209FF920F931F93CF932C
:10197000DF9380916602807FD1F480916302882397
:10198000B1F080912F02109130026091610270914C
:101990006202A0916402B0916502062F0723C091F4
:1019A0004001D091410196E0F92E181306C0DF9155
:1019B000CF911F910F91FF90089590E0109711F033
:1019C0000F3F19F401968770F0CFF89E9001F99EB1
:1019D000300D1124F901EF5CFD4F41814713F2CF27
:1019E00040814613EFCF42814111ECCF43815481B6
:1019F0004A1B5B0B4C175D0728F7809166028F70BE
:101A0000806180936602F901EA5CFD4F80818F70EE
:101A10008061808381E692E00E946609DF91CF9128
:101A20001F910F91FF900C94850CAF92BF92CF92B3
:101A3000DF92EF92FF920F931F93CF93DF93CDB777
:101A4000DEB72B970FB6F894DEBF0FBECDBF8C016B
:101A500085E0F801DE01179601900D928A95E1F775
:101A6000F801E28081E6C82E82E0D82E60916402FF
:101A7000709165026115710509F432C1909161029E
:101A800020916202822F89238F3F09F429C140816E
:101A90005181A380B480F0906302F501E61BF70B3F
:101AA0006091400170914101FF2009F4EBC08091E9
:101AB0006602382F307FE617F70708F0BDC03111F6
:101AC00079C0FE2C251323C0941321C0E1101FC040
:101AD0008F708061809366020E94A60CC6010E94EE
:101AE000660980916602F80185838F2D2B960FB6CB
:101AF000F894DEBF0FBECDBFDF91CF911F910F9144
:101B0000FF90EF90DF90CF90BF90AF900895AB28FB
:101B100029F0842F85238F3F09F0FBC080E0F82F48
:101B2000F170DF2EE0912F022091300236E080FD2F
:101B30001CC0EE20D1F28091660281608093660223
:101B4000F12CD3CF8E2F90E03E9FF0011124EF5C5B
:101B5000FD4F6181651306C06081641303C062811B
:101B6000E612E7CFFC013196E770E213EBCF4F832B
:101B700058878F8198850E944F0C292F22952F70AE
:101B8000903260F0225F2F70223078F49F7051F015
:101B9000F8019581907F31F4D12C0AC09F7011F02B
:101BA0008823D1F3805E8830B8F3C8010E946609AB
:101BB000FD2C9BCF251314C0941312C0E11010C04C
:101BC000F8018583C8010E94660986E0F801A1E654
:101BD000B2E001900D928A95E1F70E94A60C85CFA4
:101BE000C8010E94BC09882319F1EE2009F18091F7
:101BF0006602803270F020916102309162023A8375
:101C000029831B82BD82AC828E83CE0101960E9405
:101C1000660986E0F801A1E6B2E001900D928A958E
:101C2000E1F70E94B40C0E94A60CFF24F3945DCF50
:101C3000C8010E946609F9CF311113C07A2DBB8605
:101C4000AA866E2D8B850E94C30981E692E00E94D0
:101C5000660986E0F60111928A95E9F70E94A60CC2
:101C60006FCF2513BDCF9413BBCFE110B9CFF801CF
:101C70008583C8010E94660986E0F60111928A9563
:101C8000E9F733CFE617F707F0F4FE2CEE2081F2E8
:101C900025130BC0941309C086E0F801A1E6B2E059
:101CA00001900D928A95E1F720CFC8010E94BC09EE
:101CB0008111AFCF80916602816080936602C80176
:101CC0000E94660912CF7A2DBB86AA866E2D8B855F
:101CD0000E94C30986E0F60111928A95E9F77DCF4B
:101CE000EE2009F4A5CFC8010E94BC09F82E882374
:101CF00009F49ECF86E0F801A1E6B2E001900D92D2
:101D00008A95E1F781E692E00E947D060E94B40C7C
:101D100064CF81E08E2503CF1F93CF93DF93CDB7A0
:101D2000DEB72C970FB6F894DEBF0FBECDBF4F8342
:101D3000588769877A878B879C87CE0107960E9490
:101D4000150D882369F08A859B85892B39F04F8191
:101D50005885842F85238F3F09F077C016E065C032
:101D600086E0FE013796DE01119601900D928A956C
:101D7000E1F76A857B856115710581F35F8148858F
:101D8000842F85238F3F51F32091300230E0C90129
:101D9000019687709927E0912F02E817190671F4D0
:101DA0000E949A091092300210922F0286E0E1E61A
:101DB000F2E0DF011D928A95E9F7D0CF59834A837B
:101DC0007D836C8396E0929FD001939FB00D112488
:101DD000AF5CBD4FFE01319601900D929A95E1F7EF
:101DE000809330020E94850CB9CF819FC0011124DD
:101DF0008F5C9D4F0E94150D8823E9F0E0912F0222
:101E00001E9FF0011124EF5CFD4F408151816281E2
:101E10007381848195810E94D20980912F0290E084
:101E200001968770992780932F0280912F029091BD
:101E300030028913DACF2C960FB6F894DEBF0FBEAE
:101E4000CDBFDF91CF911F91089569857A858B85EC
:101E50009C850E94D20982CF682F80914201909187
:101E600043010C94F420682F80914201909143012A
:101E70000C94F62080914201909143010C94F8203B
:101E800080916F02859585958595089580916F0263
:101E90008770089590916F02977081E009F480E057
:101EA000089580917A02089590917A02982B9093E8
:101EB0007A020895982F909580917A0289238093D1
:101EC0007A02089510927A02089590917902982BDF
:101ED000909379020895982F9095809179028923A3
:101EE000809379020895109279020895809170028A
:101EF000089508950C94790F9091120392FD08C0F3
:101F000090917002981721F0809370020C947A0FD0
:101F1000089580917002882329F01092700280E069
:101F20000C947A0F0895CF93DF93E0914201F091E2
:101F3000430180917A028083E0914201F091430154
:101F4000808190917902892B8083909170029923EE
:101F500081F0E0914201F09143018081892B8083DF
:101F600080914201909143010E94A82081110E941A
:101F7000890FC0914201D091430148E050E067E6EB
:101F800072E0CE010E94BB28892B69F088E0FE0137
:101F9000A7E6B2E001900D928A95E1F7CE01DF91BC
:101FA000CF910C947120DF91CF91089508950C94F6
:101FB000D60F9091120392FD10C098E0899F900176
:101FC0001124622B60936F020E94A40A80916F0219
:101FD0008595859585950C94D70F0C94A40A10923D
:101FE0006F0280E00C94D70F90916F028095892347
:101FF00080936F02282F277091F4282F082E000C51
:10200000330B9217130659F09091120392FD07C0FB
:102010008595859585950E94D50A0C94EF0F0895B6
:102020009091120392FB222720F9281769F080FB78
:1020300092F99093120380911103909112030E94E0
:10204000551082E00C94F40F08958091120382FBE6
:10205000882780F991E089270C94101081E00C9476
:10206000101080E00C94101090E080E00E948C2B07
:102070009C0181E0293E3E4F09F080E0089582E016
:1020800090E00C94842B83E090E00C94842BCF930D
:1020900084E090E00E94842BC82F82E290E00E94AE
:1020A000842B982F8C2FCF910895CF93682FC92F11
:1020B00084E090E00E94922B6C2F82E290E0CF911E
:1020C0000C94922BAB01BC018FE090E00C94A42BFC
:1020D000AB01BC0183E190E00C94A42B60E070E0C4
:1020E000CB010C94681060E070E0CB010E9462109C
:1020F0000C946E1069EE7EEF90E080E00E94B02BB1
:1021000060E082E090E00E94922B60E083E090E04B
:102110000E94922B10922B0210922C0210922D02F0
:1021200010922E0260E084E090E00E94922B60E02A
:1021300082E290E00E94922B60E085E090E00E94B5
:10214000922B60E086E090E00E94922B6FEF87E098
:1021500090E00E94922B40E050E0BA0188E090E0CD
:102160000E94A42B60E08DE090E00E94922B40E062
:1021700050E0BA0188E190E00E94A42B60E087E182
:1021800090E00E94922B40E050E0BA018CE190E098
:102190000E94A42B70E060E080E290E00E94B02BEF
:1021A00040E050E0BA0188E190E00E94A42B0C943A
:1021B00073100C947A10682F8EE090E00C94922BA0
:1021C0000E94A2216093890270938A0280938B02FD
:1021D00090938C02609385027093860280938702AD
:1021E00090938802089585B7806885BF85B7806819
:1021F00085BF0895089508950C94FB1008950C94DC
:10220000FE100E94F31088EE93E10E9454200E9479
:10221000FA100C94FC100C94E715089508950E9490
:102220000D110C940E110E94EB130C9425060E94C4
:102230008D210E9485130E9401160E943B150E9469
:1022400013110E94471880E00E94A5180E940B16E7
:102250000C94FF109F92AF92BF92CF92DF92EF92B9
:10226000FF920F931F93CF93DF9300D000D00F9274
:10227000CDB7DEB70E945D15D82E81110E94E01007
:102280008BE7A82E82E0B82E10E000E0902E802F81
:102290000E942914F82EF501E1905F01E81609F477
:1022A00044C080918D0281FD0E942F148E2D8F25B8
:1022B000C12CEE24E394982F9E2191F10E940B11E2
:1022C000882399F0C9829A82FE2081E009F480E097
:1022D0008B830E9496218160782F9D838C83498116
:1022E0005A816B818D810E944006F801E558FD4FAF
:1022F0008081E826E08281E0D11001C080E00F906B
:102300000F900F900F900F90DF91CF911F910F9131
:10231000FF90EF90DF90CF90BF90AF909F90089587
:10232000C394EE0CF6E0CF12C6CF0F5F1F4F0A30FA
:10233000110509F0ABCF8FEF89838A831B820E943E
:1023400096218160782F9D838C8349815A816B818E
:102350008D810E944006CFCFCF930E942A11C82FB3
:102360000E94E7150E94461BC1110E94FF19CF91E0
:102370000C943506CF93DF930E94AA12EC018115CD
:1023800023E59207D0F5811532E5930708F0A2C046
:10239000811540E29407D8F48F3F910509F060F46D
:1023A000853A910568F4049738F491E080E021972C
:1023B00009F090E0C92FD82FCE01DF91CF91089579
:1023C000805E91090897C0F3D0E0C0E0F5CFC11559
:1023D00081E5D80768F4C11590E5D90708F05DC01C
:1023E000CE0190548115904178F7DF70D06AE4CF28
:1023F000DC2FCC27C16FD06ADFCF811539E5930779
:10240000A0F5811548E5940708F079C0C11585E568
:10241000D807C8F4C11594E5D90708F06BC0CE0100
:102420008370992721E030E002C0220F331F8A9584
:10243000E2F7C695C69540E2C49FE0011124C22B85
:10244000D32BDA68B9CFCE0195558F3F910511F0A6
:1024500008F0BACF8C2F0E944213C82FD0E0DC2F97
:10246000CC27CC27DF71D062A7CFC1158AE5D8076A
:1024700008F44AC0CE0190568115904208F0A4CFCE
:102480008D2F8F710E94421390E0982F8827882704
:102490009F719C012C2BE901E6CFCE0174E096954B
:1024A00087957A95E1F783702C2F269526952370D2
:1024B00040E2249F90011124382B8C2F8370C1E0BF
:1024C000D0E002C0CC0FDD1F8A95E2F7C22BD32BE0
:1024D000DC6872CF8370992721E030E002C0220FC0
:1024E000331F8A95E2F7C695C69580E2C89FE00142
:1024F0001124ECCFDC2FCC27C46FD06A5DCFD82F4E
:10250000CC27C06FD06A58CF8C2F8F700E94421397
:1025100034E0D695C7953A95E1F7CF70DC2FC82FF8
:10252000D0694ACF972F70E026E0929F600D711D11
:102530001124FB019CE3899FE00DF11D1124EE0F96
:10254000FF1FE455FF4F8591949108950E949212C8
:102550000C94BA11803E910599F1C8F4813391052C
:1025600009F476C048F48932910509F46AC08A32C8
:10257000910509F474C0089589339105D1F082382A
:102580009105B9F08533910509F454C00895843E4E
:10259000910599F138F4823E9105F9F0833E910559
:1025A00009F10895863E910599F1873E9105B9F1AB
:1025B0000895209111032370A1F080EE90E008951A
:1025C0002091110320FD52C03091120330FF09C049
:1025D00024FF4FC090E080E004C02091110322FD51
:1025E000F7CF08952091110322FD46C030911203C8
:1025F00030FDE3CF24FFF5CFEDCF2091120321FF73
:10260000F0CF8091110384FDE5CF87EE90E008952F
:102610002091110323FFE5CF24FDDCCFF6CF2091DD
:10262000110323FD2CC03091120331FFE3CF84EE60
:1026300090E008952091110325FFD3CF89E290E027
:1026400008952091110325FFCCCF85E390E00895F4
:102650002091110326FFC5CF8AE290E008952091D2
:10266000110326FFBECF81E390E0089589E390E057
:10267000089583EE90E0089582EE90E0089586EE4E
:1026800090E008959091110392FF06C0282F2871C1
:102690002830F9F4877F846093FF06C0282F2871C3
:1026A0002831F1F4877E84612091120320FF06C057
:1026B000382F38713830D9F4877F816021FF06C008
:1026C000282F28712831D1F4877E816194FD877E7F
:1026D0000895282F24712430F9F68B7F8860DCCF91
:1026E000282F2471243101F78B7E8861DDCF382FAC
:1026F0003171313019F78E7F8860E0CF282F21713A
:10270000213121F78E7E8861E1CF10920D03109266
:102710000E0310920F03109210030895CF92DF92D0
:10272000EF92FF92CF93DF9300D000D0CDB7DEB70A
:102730006B017C010E94E71581110EC00E94A2214D
:10274000C61AD70AE80AF90AC0920D03D0920E03FE
:10275000E0920F03F09210030F900F900F900F90E4
:10276000DF91CF91FF90EF90DF90CF900895CF93BE
:10277000DF9300D000D0CDB7DEB70E94E7158823E5
:1027800041F00F900F900F900F90DF91CF910C942C
:10279000A2210E94A22169837A838B839C838091EA
:1027A0000D0390910E03A0910F03B09110032981A6
:1027B0003A814B815C81280F391F4A1F5B1FCA0178
:1027C000B9010F900F900F900F90DF91CF91089566
:1027D00080E008950895CF93DF9300D000D0CDB767
:1027E000DEB70E943410811102C00E94D9100E94ED
:1027F0003F1080938D020E944710909312038093A4
:1028000011030E94EA130E944310282F30E050E089
:1028100040E0CA01B9010E94F2098091270290911B
:102820002802A0912902B0912A0289839A83AB835E
:10283000BC83BC01CD010F900F900F900F90DF91E2
:10284000CF910C946C0A08950C94231408950C9461
:102850002614E82FF0E0E25EFC4F80810895089591
:1028600080EA8A95F1F7089500C008950C94301419
:1028700008950C943814EF92FF921F93CF93DF9337
:1028800000D000D00F92CDB7DEB70E94E715182F09
:1028900060912803882309F449C01A821982FE0135
:1028A000339683E0DF011D928A95E9F7862F90E049
:1028B00032977F01BF01825E9C4F0E9419168823C8
:1028C000F1F08091130390E045E050E0B701825EA3
:1028D0009C4F0E94BB2821E020938E02892BD1F4CB
:1028E00010E00E94B005812F0F900F900F900F9075
:1028F0000F90DF91CF911F91FF90EF9008958091FD
:102900008E02882369F385E0D7011D928A95E9F745
:1029100010928E02A0911303B0E0A25EBC4F85E03E
:10292000F70101900D928A95E1F7DBCF70E0625ECE
:102930007C4F8091130390E0825E9C4F0E94A7160B
:102940000E943914D0CFF894E82FE295EF70F0E0B0
:1029500041A18F7021E030E0B90102C0660F771FFE
:102960008A95E2F7CB01962F9095942391A392A19B
:10297000892B82A378940895CF93DF93CFEBD1E096
:1029800089918F3F11F00E94A31481E0C43CD807C5
:10299000B9F7C9EBD1E089918F3F11F00E94A314E0
:1029A00081E0CF3BD807B9F7DF91CF910895CF925F
:1029B000DF92EF92FF920F931F93CF93DF93EC017F
:1029C000D62E062F10E0C80181549E4F7C01FC01D9
:1029D00020812F3F09F444C0F894E22FE295EF7074
:1029E000F0E031A12F7081E090E001C0880F2A95BE
:1029F000EAF7932F982B91A392A18095892382A324
:102A000078940E943414E9EBF1E031E0C12C21917B
:102A10002F3F79F1A22FA295AF70B0E090968C91E4
:102A200090E02F7002C0959587952A95E2F780FD7A
:102A300020C0832FC82A330F81E0EF3BF80739F716
:102A4000F70180818F3F11F00E94A31461E0C11053
:102A500001C060E08D2D0E943614C00FD11FC882C6
:102A6000DF91CF911F910F91FF90EF90DF90CF906A
:102A7000089580E0DFCF809144018091440195E08A
:102A8000811190E09093280385E0891B80931303C4
:102A90000E94BC148AE0EEE1F3E0DF01982F1D9262
:102AA0009A95E9F7E4E1F3E0DF011D928A95E9F7F1
:102AB00085E00E94B0150C94AE050F931F93CF9341
:102AC000DF93CDB7DEB72A970FB6F894DEBF0FBEFF
:102AD000CDBF1A821982FE01339688E0DF011D9274
:102AE0008A95E9F710E0612FCE0101960E94D71474
:102AF0001F5F1530C1F74AE050E0BE016F5F7F4FA6
:102B000084E193E00E94BB288C0121E0892B09F429
:102B100020E00115110549F08AE0FE013196A4E19B
:102B2000B3E001900D928A95E1F76091280370E07F
:102B3000625E7C4F45E084E193E00E94B11581E044
:102B400090E0012B11F40E943B142A960FB6F894E2
:102B5000DEBF0FBECDBFDF91CF911F910F910895C2
:102B60000895FF920F931F93CF93DF93F82E092FB1
:102B7000162FD72FC42F222349F081E08093910292
:102B80000E9496219093900280938F0280919102EF
:102B90008823A1F080918F02909190020E94C2211F
:102BA000059760F0EF2DF02FA12FBD2FCE0FDF2F57
:102BB000D11DEC17FD0741F410929102DF91CF91E6
:102BC0001F910F91FF90089581918D93F2CF809185
:102BD0009402811107C00E947F28882351F081E070
:102BE0008093940281E090919402913009F080E00A
:102BF000089582E0809394020E947A28F3CF0C9487
:102C0000E7150E94FF15809344010E94E71581118A
:102C10000C94511608950E94E715811102C00C947E
:102C20005316089581E0909195029A3008F080E063
:102C300008950F931F93CF93DF93EC01162F072F67
:102C4000809195028A30C0F4612F702FCE010E94CE
:102C5000A516C82F811122C0809195028F3FB9F42B
:102C60000E94962190939302809392028C2FDF9181
:102C7000CF911F910F9108958091920290919302AC
:102C80000E94C221843F9140F8F6C0E0EFCF8F5FF1
:102C9000809395028A3020F7C1E0E8CF1092950228
:102CA000E5CF0C94F01E0C94F31ECF92DF92EF92BE
:102CB000FF920F931F93CF93DF93FA01690178017D
:102CC000C82F880FDD0B3097B1F0DE0193E0AA0F1B
:102CD000BB1F9A95E1F7AB5BBE4F11968D919C910E
:102CE00012978A569D4F4C9150E0E417F50708F46F
:102CF000AF010E94C828CE010E94DE1F182F882332
:102D0000D1F0E114F104B9F083E0CC0FDD1F8A9516
:102D1000E1F7FE01EB5BFE4F438150E0E416F50660
:102D200008F4A701CB5BDE4F6C817D816A567D4F35
:102D3000C6010E94C828812FDF91CF911F910F916A
:102D4000FF90EF90DF90CF9008950C94D6170C94DD
:102D5000F4170F931F93CF93DF93CDB7DEB7289768
:102D60000FB6F894DEBF0FBECDBF8091AD0290913B
:102D7000AE02A091AF02B091B002BC01CD010E94A1
:102D8000D12111E0643671058105910520F10E9481
:102D9000B713DC01CB010296A11DB11D89839A8373
:102DA000AB83BC8310E000E030E020E044E050E082
:102DB000BE016F5F7F4F82E00E945516182F882357
:102DC00051F00E94A2216093AD027093AE028093F5
:102DD000AF029093B002812F28960FB6F894DEBF11
:102DE0000FBECDBFDF91CF911F910F910895AF928C
:102DF000BF92CF92DF92EF92FF920F931F93CF93E8
:102E0000DF93CDB7DEB72A970FB6F894DEBF0FBEBB
:102E1000CDBF7B01A090C401B090C50101E010E0DE
:102E20009E012A5F3F4F50E040E070E060E080E0AC
:102E30000E945516182F882309F44EC065018FEFA4
:102E4000C81AD80A8091A9029091AA02A091AB0257
:102E5000B091AC02BC01CD010E94D1216F83788773
:102E600089879A87643671058105910568F105E0C7
:102E700010E09E012F5F3F4F50E040E070E060E0C7
:102E800081E00E945516082F65E070E0C6010E949F
:102E9000481811E09E81981310E0102341F10E9420
:102EA000A2216093A9027093AA028093AB0290932F
:102EB000AC0285E0FE013196A4EAB2E001900D92E9
:102EC0008A95E1F711E013C065E070E0C6010E9449
:102ED00048189E818913CBCF85E0F5013196DE013C
:102EE000119601900D928A95E1F71111E2CF85E0DC
:102EF000E4EAF2E0D70101900D928A95E1F7812F83
:102F00002A960FB6F894DEBF0FBECDBFDF91CF91EA
:102F10001F910F91FF90EF90DF90CF90BF90AF90F7
:102F20000895AF92BF92CF92DF92EF92FF920F93EC
:102F30001F93CF93DF93F82EE92ED62EC72E8A014A
:102F40000E941216AA24A394B12C882319F08AE0B7
:102F5000A82EB12CC1E0D0E0F8946D2D7C2D8F2DE2
:102F60009E2DF80109957894811104C02196AC1624
:102F7000BD065CF4DF91CF911F910F91FF90EF9010
:102F8000DF90CF90BF90AF900895CC9F9001CD9FE0
:102F9000300D300D112490E080E045E34A95F1F7C3
:102FA0000000019682179307C1F7D6CF0F931F93A6
:102FB000CF93DF93D82FC92F8B0147EF56E10E94A3
:102FC0009117882359F049EA56E1B8018D2F9C2FBB
:102FD000DF91CF911F910F910C94911780E0DF91B9
:102FE000CF911F910F9108950F931F93CF93DF936C
:102FF000FB01F894C091C401D091C501CE010196A6
:1030000025E0DC0101900D922A95E1F765E070E082
:103010000E94481888837894F8946E817F8188850F
:1030200099850091A0021091A1022091A2023091F5
:10303000A302601771078207930751F06093A00203
:103040007093A1028093A2029093A3020E948E1318
:103050007894DF91CF911F910F9108950E9468237A
:103060000E9417110C9474230E9478230E94AC11C3
:103070000C9492230E9436210E944F230E9401113A
:103080000E942E180E9434180E940F11FBCF089541
:10309000FC01680F791F8FEF91E36E177F0709F42A
:1030A00008952191822728E030E087FF06C0880F2D
:1030B000892721503109C9F7F0CF880FFACFCF9275
:1030C000DF92EF92FF920F931F93CF93DF936C01E8
:1030D0007B0164E670E088E70E94841DEC0197FDA7
:1030E00012C010E000E0F601E00FF11F849164E6E9
:1030F00070E00E94FE1DEC01892B29F40F5F1F4F29
:103100000E151F0581F70E948B1ECE01DF91CF9116
:103110001F910F91FF90EF90DF90CF900895089549
:10312000E9E2F3E080E092E0DF019C011D92215092
:103130003040E1F7F0933005E0932F058FEF9FEFDC
:103140009093DD028093DC020895CF93DF9300D04B
:1031500000D0CDB7DEB70E948F180E94C2048093C2
:10316000D80280FD15C080E88093D7020E947E1DA2
:103170006DE070E083EA92E00E945F18892B51F0C5
:1031800080E00F900F900F900F90DF91CF910895F6
:1031900080E2EACF8091D80263E070E081FD28C030
:1031A00080EA92E00E945F18892B51F76DE070E091
:1031B00080E992E00E945F18892B11F70E94A221FA
:1031C000DC01CB01805A9541AF4FBF4F80932B0557
:1031D00090932C05A0932D05B0932E050E94901876
:1031E00081E08093DB028093DA021092D902C9CF8A
:1031F0008DE992E0D7CF2091D70236E0839FC001BE
:103200001124629F800D911D1124811522E09207E7
:1032100014F090E080E0875D9C4F909330058093A0
:103220002F05089520912F0530913005235233400A
:103230004091D702642F70E0C9010E949828481B72
:10324000463010F4240F311D211582E0380710F0AC
:1032500030E020E0275D3C4F3093300520932F0570
:1032600008951F93CF93DF93982F162F81E09A3004
:1032700019F09D3031F480E0DF91CF911F910C94D3
:10328000AB19C0912F05D091300586E0FE01A1EB6E
:10329000B2E001900D928A95E1F7903EC8F086E089
:1032A000FE0111928A95E9F711111EC0C0912F05F8
:1032B000D091300546E050E0BE0181EB92E00E94E3
:1032C000BB28892BF9F4DF91CF911F910C9412192F
:1032D000F6E09F9FB001112460557D4F46E050E01D
:1032E000CE010E94B228E0CFE0912F05F091300589
:1032F0009F012A5F3F4F2E173F07C1F280818095C3
:103300008193F9CFC952D340CE0125E09695879598
:103310002A95E1F721E030E0A90102C0440F551FD2
:103320008A95E2F7CA014091DC025091DD02842BBC
:10333000952B259645E0D695C7954A95E1F702C0AD
:10334000220F331FCA95E2F7822B932B9093DD0255
:103350008093DC02B8CFCF93382FE0912F05F09106
:103360003005E952F3402091D702622F70E0CF017F
:103370000E949828281B822F332369F066E00E9460
:103380008C28C82FC15010F4CF91089560E080E2DE
:103390000E943119F7CF9F01280F311D21153240AE
:1033A00018F080E0F0E0E0E08E0F9F2F911D875D28
:1033B0009C4F9093300580932F05E6CFFF920F939B
:1033C0001F93CF93DF93EC01F62EFC0101900020B8
:1033D000E9F78F0101501109C017D10730F0DF91D3
:1033E000CF911F910F91FF9008956F2D89910E94A9
:1033F0003119F2CF0E94DE1981E00C94AB19CF9302
:10340000DF9300D000D0CDB7DEB78091DB02811111
:1034100009C08091DA020F900F900F900F90DF910A
:10342000CF9108950E94A221DC01CB01805A9541E1
:10343000AF4FBF4F80932B0590932C05A0932D0584
:10344000B0932E058091DA028111E3CF62E070E043
:103450008EE892E00E945F18892BD9F681E0809374
:10346000DA02D7CF2F923F925F926F927F928F9224
:103470009F92AF92BF92CF92DF92EF92FF920F9303
:103480001F93CF93DF938091DB02882369F0209113
:10349000DC023091DD022115310531F08091D90235
:1034A00061E070E0882399F0DF91CF911F910F9137
:1034B000FF90EF90DF90CF90BF90AF909F908F9054
:1034C0007F906F905F903F902F9008958F5F082FAF
:1034D00010E01B01082E02C0220C331C0A94E2F7F4
:1034E000A90142215321452B89F39091D80290FDE7
:1034F00044C08295880F807680935F01980136954D
:1035000027953695279520936201815E809360010F
:103510001092630124E630E047E050E06DE571E091
:1035200088E70E942D1E892B09F0BECFA80125E057
:10353000440F551F2A95E1F78091D80280FD2BC0DA
:10354000475D5C4F04E610E020E230E060E488E78D
:103550000E945A1E892B09F0A7CF0E94FF19E10192
:10356000C095D0958091DC029091DD02C823D923CB
:10357000D093DD02C093DC0297CF880F880F880FAD
:1035800080935F0110926201895F8093600183E004
:1035900080936301BFCFE7EBF2E080E2DF011D9291
:1035A0008A95E9F7AAECB1E006EC11E08EECC82EA2
:1035B00081E0D82E97E0592E772473948D91E801FD
:1035C00029918E01240F352F311D275D3C4FE82FA7
:1035D000F0E0E954FD4F90E080E0652C681A872CFC
:1035E000082E01C0880C0A94EAF77901A12CE701A2
:1035F000B9907E01B820662D6A196770962E062E46
:10360000000C770BDB2D01C0DD0F9A94EAF7719562
:10361000619571096770772701C0B6946A95EAF7DA
:10362000BD2A6081962E9B289082A39468E0A61202
:10363000DECF019631968830910579F6CA16DB0601
:1036400009F0BCCF04E610E020E230E047EB52E0A6
:103650007DCF8091DA029091DB02911103C091E05D
:1036600089270895882369F062E070E08CE892E091
:103670000E945F18892B19F08091DA020895109248
:10368000DA028091DA02EBCF0C94CC04CF93DF9373
:1036900000D000D0CDB7DEB78091DB02882309F4DB
:1036A0003FC08091290590912A050E94C221C297AE
:1036B00060F00E94962190932A058093290560E08E
:1036C00080E00E94FB180E94441B0E94321A8091E5
:1036D000DA02882329F10E94A22169837A838B83ED
:1036E0009C8380912B0590912C05A0912D05B09184
:1036F0002E0529813A814B815C81281B390B4A0BAD
:103700005B0BDA01C9018F3F9F4FAF4FBF4740F4BA
:103710000F900F900F900F90DF91CF910C94291B79
:103720000F900F900F900F90DF91CF910895CF934E
:10373000DF93EC01FB018281882309F4F2C0C236D9
:10374000FDE5DF0749F048F5C631ECE5DE07E0F4BA
:10375000C230FCE5DF07F0F00E944710909312039F
:1037600080931103C631ECE5DE0748F5C230FCE575
:10377000DF07C0F480911103909112030E9455104D
:103780000E949A0980E006C09E012B5F3C452930CB
:10379000310510F3DF91CF910895C63A9DE5D90721
:1037A000C9F7DACFFE01E350FC4580911103816037
:1037B000E331F10528F5E150F44D0C94AC28C43008
:1037C0008DE5D80770F4CB3F9CE5D90798F2FE0150
:1037D000EC5FFC45E830F10510F5EE5EF34D0C941E
:1037E000AC28C236EDE5DE0709F494C090911103D0
:1037F000892F8E7F90FF8160C63ADD4509F0BACFF0
:1038000080931103B7CF809111038260F9CF80912B
:1038100011038460F5CF809111038860F1CF80910E
:103820001203816080931203A5CF809112038260FE
:10383000F9CF809111038061E3CF80911103806201
:10384000DFCF809111038064DBCF0E949A098091C1
:1038500011038068D5CF809111038C60D1CF809106
:1038600012038360DFCF809111038E7FC9CF8091D7
:1038700011038D7FC5CF809111038B7FC1CF8091C4
:103880001103877FBDCF809112038E7FCBCF8091B4
:1038900012038D7FC7CF809111038F7EB1CF8091AE
:1038A00011038F7DADCF809111038F7BA9CF0E9433
:1038B0009A09809111038F77A3CF80911103837FA1
:1038C0009FCF809112038C7FADCF8091110382FB3B
:1038D000992790F921E0922790FB82F990FB83F9D8
:1038E0008FCF80911203982F909591708E7F892BA6
:1038F00090FB81F997CF0E949A0990911103892F2B
:1039000097FB87F980587CCF81E00E94DB1032CF93
:1039100080E0FBCF90911103892F8F7E94FF80610F
:103920006FCF81E037CFCF93DF93EB0186319C459A
:1039300011F50E94510F9A81992399F08A7A91E0AA
:1039400009F490E09093DE02811109C089E20E949F
:103950002C0F0E94930F80E0DF91CF91089585E3B3
:10396000F6CF8091DE02811104C089E20E94330FFC
:10397000F0CF85E3FBCF81E0EFCF0F931F93CF9381
:10398000DF93C42FD22FFC0182818823C9F040939A
:10399000E1020E9496219093E0028093DF0280E290
:1039A0008C0F883008F050C0C77081E001C0880FCC
:1039B000CA95EAF7DF91CF911F910F910C94F4060D
:1039C0001091E102141335C08091DF029091E00262
:1039D0000E94C2218436910560F5C0E2CD0F1D170B
:1039E000B9F080E2810F883040F4177081E001C0A7
:1039F000880F1A95EAF70E94FB06C83048F481E068
:103A00009D2F977001C0880F9A95EAF70E94F406DF
:103A1000802F0E94EC06C830B8F4D77081E001C056
:103A2000880FDA95EAF7DF91CF911F910F910C94EF
:103A3000FB0680E28C0F883038F4C77081E001C04B
:103A4000880FCA95EAF7EFCFDF91CF911F910F91C1
:103A500008950F939C01CB01243F4CE53407A1F15D
:103A600090F4293DFCE53F0749F12A3D4CE5340738
:103A7000E9F1283D3C45C1F0FC0182818823E1F158
:103A80001092E10219C0263FFCE53F0719F1273FDC
:103A90004CE5340729F1253F3C4571F707E225EE57
:103AA00044EE65EF7CE505C006E221EE41EE68EDEF
:103AB0007CE50E94BD1C80E00F91089507E225EE91
:103AC00045EE69ED7CE5F5CF06E221EE40EE64EFD0
:103AD0007CE5EFCF06E221EE42EE66EF7CE5E9CF32
:103AE00007E225EE46EE67EF7CE5E3CF08E221E052
:103AF00045EE6AED7CE5DDCF81E0DECF1092B900C6
:103B00008CE08093B80008959F92AF92BF92CF92BD
:103B1000DF92EF92FF920F931F93CF93DF93B82E14
:103B2000EB010E9496216C01EE24E394F12CC43148
:103B3000D10560F025E0E22EF12CCF3FDC0731F01B
:103B4000CE0164E170E00E9498287B0184EAA82EEF
:103B500094E8992E1092BC00A092BC000E9496217D
:103B60008C018091BC0087FF0DC08091B900887FD7
:103B7000883039F18091B900887F803111F10FEFE1
:103B80001FEF09C00E949621801B910B8E159F0587
:103B900040F30EEF1FEFCF3FDC07E1F2C6010E94BA
:103BA000C2218C179D07B0F2C801DF91CF911F9100
:103BB0000F91FF90EF90DF90CF90BF90AF909F90CC
:103BC0000895B092BB009092BC000E9496218C0197
:103BD0008091BC0087FF0AC02091B900287F28315E
:103BE00011F0203461F610E000E0DECF0E94962153
:103BF000801B910B8E159F0558F3CBCF0F931F930E
:103C0000CF93DF93EB018093BB0084E88093BC00EB
:103C10000E9496218C018091BC0087FF11C02091E9
:103C2000B900287F81E090E0283211F490E080E034
:103C3000919581959109DF91CF911F910F910895F1
:103C4000CF3FDC0741F30E949621801B910B8C171C
:103C50009D0708F38EEF9FEFEECFCF92DF92EF92AA
:103C6000FF920F931F93CF93DF936B018A01F22E84
:103C7000E32E622F732F0E94841DAC01E6010C0D10
:103C80001D1DC017D10711F057FF0DC084E98093A7
:103C9000BC00CA01DF91CF911F910F91FF90EF906F
:103CA000DF90CF9008956F2D7E2D89910E94FE1D8B
:103CB000AC01E7CFCF92DF92EF92FF920F931F9369
:103CC000CF93DF93C62F6A017901B8010E94841D4A
:103CD0009C0197FD0DC0B8018C2F0E94FE1D9C0118
:103CE000E601EC0CFD1CCE15DF0511F037FF0DC011
:103CF00084E98093BC00C901DF91CF911F910F919E
:103D0000FF90EF90DF90CF900895B80189910E94C5
:103D1000FE1D9C01E8CF84E98093BC0008958EE1EC
:103D20004A9B02C08150E1F74A9BFECF08955A9802
:103D300080E28A95F1F75A9A0895FC013BE03A95A2
:103D4000F1F798E020E080E031E040E14A95F1F7BA
:103D5000880F4A9B02C08160232742E04A95F1F711
:103D6000000040E14A95F1F7915079F790E19A957A
:103D7000F1F799B132E03A95F1F7000040E14A9548
:103D8000F1F792FB992790F992272081920F908367
:103D90000895EF92FF920F931F93CF93DF930F92AB
:103DA000CDB7DEB719828C017C01E60EF11C0E1531
:103DB0001F0561F481E09981911180E00F90DF91FE
:103DC000CF911F910F91FF90EF9008950E948F1E49
:103DD000CE0101960E949D1EF80181938F01E7CFCD
:103DE000529A5A9A089552985A9AEA9AE9E6F0E055
:103DF00080818F7C808308956150770B91E001C0B2
:103E0000990F6A95EAF720E031E0911108C022236A
:103E100091F05A9A80E28A95F1F75A980895492FBD
:103E2000482339F05A9A232740E24A95F1F79695AC
:103E3000ECCF5A98F9CF5A98EDCFFF920F931F937A
:103E4000CF93DF93EC018C01060F111DC017D10732
:103E500031F4DF91CF911F910F91FF900895F99068
:103E60000E94971E68E08F2D0E94FC1EEFCF1F92CC
:103E70000F920FB60F9211240F931F932F933F931E
:103E80004F935F936F937F938F939F93AF93BF9362
:103E9000EF93FF93CF93DF930F92CDB7DEB71982E5
:103EA0000E948F1ECE0101960E949D1E282F082F72
:103EB000069506950695982F92959570802F85709A
:103EC000980F892F837096959695890F8227877012
:103ED0009981892B09F05CC0043008F059C080E159
:103EE0008A95F1F75A9A529A82E08A95F1F700C0C2
:103EF0005A9888E0089F80011124D801AB5BBE4F1F
:103F00001696ED91FC9117973097A9F06091C40136
:103F10007091C50114962D913C911597260F371F6E
:103F200011968D919C911297680F791F13964C9161
:103F300013978C910995F801EB5BFE4F6381662323
:103F400051F02091C4013091C50184819581820F87
:103F5000931F0E941D1F0E94971E80E18A95F1F712
:103F60005A9852985A9A80E18A95F1F7F801EB5BDA
:103F7000FE4F6081662351F02091C4013091C5014C
:103F800081819281820F931F0E94C91E0E948F1E01
:103F90000F90DF91CF91FF91EF91BF91AF919F91E2
:103FA0008F917F916F915F914F913F912F911F91D1
:103FB0000F910F900FBE0F901F9018950F931F93A6
:103FC000CF93DF93EC0104970CF04CC0F894529A15
:103FD0005A9885E08A95F1F700008C2F86958570B8
:103FE0009C2F9570890F982F93708695869523E066
:103FF000CC0FDD1F2A95E1F7890F8E01082B0E9457
:10400000971E00C068E0802F0E94FC1E80E18A9508
:10401000F1F752985A9A4A9B1EC087E090E04A995D
:104020001CC0FE01EB5BFE4F63816623F9F020911B
:10403000C4013091C50184819581820F931F0E9434
:10404000C91E811113C0529A5A9A7894DF91CF9168
:104050001F910F91089500C0DECF019729F4529A65
:104060005A9A789480E0F2CF00C0D9CF0E948F1E78
:1040700080E28A95F1F75A98529A80E18A95F1F791
:10408000CB5BDE4F6881662351F02091C4013091F3
:10409000C50189819A81820F931F0E941D1F0E9472
:1040A000971E789481E0D2CF9093CF018093CE0178
:1040B00008959093E8028093E70208950E94E7151F
:1040C000811103C08091E2020895E091E702F0912E
:1040D000E802309721F00190F081E02D099480E012
:1040E0000895E091E702F091E802309721F0028014
:1040F000F381E02D099408952091E5023091E602C4
:104100002817390771F09093E6028093E502E09159
:10411000E702F091E802309721F00680F781E02D68
:10412000099408952091E3023091E4022817390799
:1041300071F09093E4028093E302E091E702F09142
:10414000E802309721F00084F185E02D099408956C
:10415000AC019C012E5F3F4F485F5F4F80E024170A
:10416000350709F40895F90191919F019923B9F355
:104170008F5FF5CF9C01662351F0FC013296285FDA
:104180003F4F8191861729F0E217F307D1F780E0BE
:10419000089581E008959C01FC0132968FEF90E034
:1041A0004191461751F08F3F19F4411101C0892FF9
:1041B0009F5F9630A9F78F3F09F40895280F311DAE
:1041C00087FD3A95F901628308959C01FC013296BE
:1041D000285F3F4F8191861303C0DF0111971C9226
:1041E000E217F307B9F708950C94CB200C94E5205F
:1041F000FC01329686E0DF011D928A95E9F7089569
:1042000008950C940021811105C081E08093E9029A
:104210000C94012182E0FACF83E08093E9020C94B0
:1042200001210C94032181E08093E9020C94012187
:104230000C941321089508950C941B21089508955A
:104240000C941A21CF930E941E210E945D150E949A
:104250001F21C0E08C2F0E942914811105C0CF5F5F
:10426000CA30C1F7CF91089581E0FCCF08951F9225
:104270001FB61F9211248F939F93AF93BF9380918A
:10428000EA02811113C08091310590913205A0910D
:104290003305B09134054196A11DB11D80933105C0
:1042A00090933205A0933305B0933405BF91AF913D
:1042B0009F918F911F901FBE1F9018958091390577
:1042C000843031F10E9414061092EA0288E190E0F5
:1042D00020E40FB6F894A895809360000FBE209359
:1042E000600083B7817F846083BF83B7816083BFB1
:1042F0007894889583B78E7F83BF0FB6F894A8957E
:1043000080916000886180936000109260000FBE11
:1043100008950E949A090C941A0682E084BD93E0E5
:1043200095BD9AEF97BD80936E0008952FB7F894CE
:104330008091310590913205A0913305B0913405FB
:104340002FBF0895CF93DF9300D000D0CDB7DEB755
:104350008FB7F894209131053091320540913305A3
:104360005091340529833A834B835C838FBF6981E5
:104370007A818B819C810F900F900F900F90DF912D
:10438000CF9108959C014FB7F89480913105909199
:104390003205A0913305B09134054FBF821B930BBA
:1043A00008950F931F93CF93DF9300D000D0CDB724
:1043B000DEB7462F572FBC012FB7F89480913105F7
:1043C00090913205A0913305B09134052FBF8C0137
:1043D0009D01041B150B260B370BC901B8010F906B
:1043E0000F900F900F90DF91CF911F910F91089533
:1043F00078941F921FB61F9211248F939F93AF93AF
:10440000BF938091310590913205A0913305B09111
:1044100034050196A11DB11D80933105909332059D
:10442000A0933305B0933405BF91AF919F918F91C5
:104430001F901FBE1F90189587E797E7909301087C
:104440008093000888E19AE00FB6F894A8958093CD
:1044500060000FBE90936000FFCF8091F30208953B
:1044600008950895CF93DF93D82FC92F81E08093CB
:10447000E9008FEF9091E800815095FD06C095ED21
:104480009A95F1F700008111F5CF8091E80085FF42
:1044900016C050E040E068E070E08D2F9C2F0E9435
:1044A000F2238091E8008E778093E80088E0ED2F7A
:1044B000FC2FABEEB2E001900D928A95E1F7DF910F
:1044C000CF9108950895089580913805811109C00C
:1044D0000E947A250E94D7258091E2008460809313
:1044E000E20008951092380508950C94132160910C
:1044F000350581E0611101C080E00C940C219091A0
:10450000390581E0943009F080E0609135050C9424
:10451000112142E061EC81E00E94F624909139057E
:1045200081E0943009F080E0609135050C9403211E
:1045300080913B05893089F148F4823009F49EC0AE
:10454000833009F459C0813041F008958A3009F46C
:1045500085C08B3009F46BC0089580913A05813A8B
:1045600009F049C08091E800877F8093E80080913E
:104570003E0590913F05892B61F468E08BEE92E057
:1045800070E00E9441248091E8008B778093E800DE
:10459000089560E090E080E0F3CF80913A058132A9
:1045A00051F580913E0590913F05892B21F5809131
:1045B000E800877F8093E8008091E80082FF17C0C1
:1045C0009091F3008091F200029731F48091F10014
:1045D000813011F0863021F48091F1008093F30254
:1045E0008091E8008B778093E8000C942A258091D5
:1045F00039058111E1CF089580913A05813AD9F7C3
:1046000080913E0590913F05892BA9F78091E800A4
:10461000877F8093E8008091E80080FFFCCF809145
:1046200070018093F1008091E8008E77DCCF80915B
:104630003A05813201F780913E0590913F05892B23
:10464000D1F68091E800877F8093E8000E942A25B8
:1046500080913C05809370010C949A0980913A05F1
:10466000813249F68091E800877F8093E8000E94BC
:104670002A2580913D058093F402089580913A05A2
:10468000813A09F0B8CF8091E800877F8093E800F5
:104690008091E80080FFFCCF8091F402C2CF84B704
:1046A000877F84BF0FB6F894A895809160008861D9
:1046B00080936000109260000FBE80E890E00FB61B
:1046C000F89480936100909361000FBE0C941821C0
:1046D0000E947A250E94D725E2EEF0E08081846076
:1046E000808378940C945F2884E691E00C945920A0
:1046F000809139058530A9F480913905853011F014
:104700000C9489210E945E21809137058823A1F3B2
:104710000E942221882381F30E94DC230E949A09AF
:10472000EBCF089508950C9495239C01FB01DA01C9
:10473000832F992783309105B9F060F4813091057A
:10474000B1F1029761F482E290E026E138E02D9326
:104750003C93089581329105E1F0829709F190E050
:1047600080E030E020E0F3CFC9019927213059F0F3
:104770008230910559F0E2E1F8E0892B81F78491CC
:1047800090E09F01E4CFE0E0F8E0F9CFE0EFF7E060
:10479000F6CF89E090E028E238E0EF2B01F7D7CFA1
:1047A00080E490E02AE438E0EF2BC9F6D0CF82E134
:1047B00090E028E338E0CBCF80E189BD82E189BD7C
:1047C00009B400FEFDCF8091D8008F7D8093D80082
:1047D0008091E00082608093E0008091E00081FDA4
:1047E000FCCF0895AF92BF92CF92DF92FF920F93CA
:1047F0001F93CF93DF936C01EB018A010E9449253F
:10480000F82E811123C00115110539F0F8018081BE
:104810009181C81BD90BC80ED91EB12CA12C209791
:10482000A9F08091E80085FD22C08091E8008E7794
:104830008093E80001151105A1F0F80180819181B4
:10484000A80EB91EB182A08285E0F82E8F2DDF91CF
:10485000CF911F910F91FF90DF90CF90BF90AF90BD
:1048600008950E9449258823D1F2F82EEFCFF60152
:1048700081916F018093F1002197FFEFAF1ABF0A7A
:10488000CECFFC01CB012091400530914105261788
:10489000370790F0009729F42091E8002E772093B5
:1048A000E80040E0009751F4411108C08091E80011
:1048B00082FF31C080E00895C901F3CF209139050E
:1048C0002223A9F12530A9F12091E80023FD2DC074
:1048D0002091E80022FDEACF2091E80020FFE2CFFE
:1048E0003091F3002091F200009719F02830310543
:1048F00058F041E02830310509F040E02091E8000F
:104900002E772093E800CECF41914093F10001979C
:104910002F5F3F4FE9CF80913905882341F08530E3
:1049200041F08091E80083FFC1CF81E0089582E0EB
:10493000089583E00895FC01CB012091400530915A
:1049400041052617370790F0009729F42091E800D9
:104950002E772093E80040E0009751F4411108C001
:104960008091E80082FF32C080E00895C901F3CF52
:10497000209139052223B1F12530B1F12091E800D1
:1049800023FD2EC02091E80022FDEACF2091E8000F
:1049900020FFE2CF3091F3002091F200009719F050
:1049A0002830310558F041E02830310509F040E069
:1049B0002091E8002E772093E800CECF44914093D9
:1049C000F100319601972F5F3F4FE8CF8091390575
:1049D000882341F0853041F08091E80083FFC0CF0B
:1049E00081E0089582E0089583E00895982F97303C
:1049F00028F08F708093E90081E008959093E9009A
:104A0000242F762F50E0981731F07091EC00209110
:104A1000ED005091F00021FD02C09F5FE8CF309182
:104A2000EB003E7F3093EB003091ED003D7F309303
:104A3000ED003091EB0031603093EB007093EC00AF
:104A40002093ED005093F0002091EE0027FDE5CF7C
:104A500080E0089580913A0587FF13C08091E800B7
:104A600082FF06C08091E8008B778093E80004C045
:104A7000809139058111F2CF0895809139058823FD
:104A8000D9F38091E80080FFF8CF8091E8008E771D
:104A9000ECCF2091E4003091E50095E6A90120914A
:104AA000EC00822F817020FF06C08091E80080FF1B
:104AB00006C080E008952091E80022FD1AC0809190
:104AC0003905882389F0853089F08091EB0085FDD8
:104AD0000FC02091E4003091E50042175307F9F22E
:104AE0009150E1F684E0089582E0089583E008950E
:104AF00081E008950E94E8250E94F025E0EEF0E0B4
:104B0000808181608083E8EDF0E080818F77808311
:104B100019BCA7EDB0E08C918E7F8C9380818F7E45
:104B200080831092380508950F931F93CF93DF93DE
:104B30000E94E8250E94F025C8EDD0E088818F779B
:104B4000888388818068888388818F7D888319BC69
:104B500010923905109235051092370510923605DE
:104B600000EE10E0F80180818B7F80838881816076
:104B7000888342E060E080E00E94F624E1EEF0E00D
:104B800080818E7F8083E2EEF0E08081816080838F
:104B9000808188608083F80180818E7F8083888116
:104BA00080618883DF91CF911F910F910895E8ED87
:104BB000F0E080818F7E8083E7EDF0E0808181608E
:104BC000808384E082BF81E0809338050C94942533
:104BD000E8EDF0E080818E7F80831092E2000895FE
:104BE0001092DA001092E10008951F920F920FB612
:104BF0000F9211242F933F934F935F936F937F9363
:104C00008F939F93AF93BF93EF93FF938091E100B6
:104C100082FF0BC08091E20082FF07C08091E1001B
:104C20008B7F8093E1000E945E288091DA0080FFF4
:104C300019C08091D80080FF15C08091DA008E7F66
:104C40008093DA008091D90080FF94C080E189BD13
:104C500082E189BD09B400FEFDCF81E08093390572
:104C60000E9464228091E10080FF19C08091E200DF
:104C700080FF15C08091E2008E7F8093E2008091DA
:104C8000E20080618093E2008091D800806280938E
:104C9000D80019BC85E0809339050E947722809165
:104CA000E10084FF29C08091E20084FF25C080E1FB
:104CB00089BD82E189BD09B400FEFDCF8091D80095
:104CC0008F7D8093D8008091E1008F7E8093E100FA
:104CD0008091E2008F7E8093E2008091E20081600B
:104CE0008093E20080913505882309F449C084E06F
:104CF000809339050E947F228091E10083FF29C0C3
:104D00008091E20083FF25C08091E100877F80933E
:104D1000E10082E080933905109235058091E10031
:104D20008E7F8093E1008091E2008E7F8093E2008D
:104D30008091E20080618093E20042E060E080E0E8
:104D40000E94F6248091F00088608093F0000E9419
:104D50007522FF91EF91BF91AF919F918F917F91BC
:104D60006F915F914F913F912F910F900FBE0F90D8
:104D70001F90189519BC109239050E94722272CFAB
:104D80008091E30087FD02C081E0B2CF83E0B0CF25
:104D90001F920F920FB60F9211242F933F934F93B0
:104DA0005F936F937F938F939F93AF93BF93CF93B3
:104DB000DF93EF93FF93D091E900DF708091EC00D7
:104DC000C82FC17080FDC0E81092E9008091F0000A
:104DD000877F8093F00078940E940C271092E9005E
:104DE0008091F00088608093F000CD2BCF70C0934D
:104DF000E900FF91EF91DF91CF91BF91AF919F912A
:104E00008F917F916F915F914F913F912F910F9073
:104E10000FBE0F901F9018951F93CF93DF93CDB7C0
:104E2000DEB7AA970FB6F894DEBF0FBECDBF8AE3F8
:104E300095E0FC0101962091F100208325E0823469
:104E40009207B9F70E9498228091E80083FF1EC163
:104E500080913A0590913B059A3008F017C1E92FEF
:104E6000F0E0E65EF34D0C94AC28803899F082387F
:104E700009F00CC180913E058F70873008F006C1A3
:104E80008093E9008091EB0085FB882780F91092E0
:104E9000E90006C080913605909137059111826036
:104EA0009091E800977F9093E8008093F100109232
:104EB000F1008091E8008E77E5C0882309F4D3C023
:104EC000823009F0E3C080913C058111D6C0809109
:104ED0003E058F702FEF280F263008F0D7C0809343
:104EE000E9002091EB0020FFC8C0933031F480919D
:104EF000EB0080628093EB00C0C09091EB0090616A
:104F00009093EB0021E030E001C0220F8A95EAF790
:104F10002093EA001092EA008091EB008860EACFCB
:104F20008111B4C010913C051F778091E300807817
:104F3000812B8093E3008091E800877F8093E800D5
:104F40000E942A258091E80080FFFCCF8091E30039
:104F500080688093E30082E0111183E0809339053B
:104F600095C08058823008F091C080913C059091A6
:104F70003D058C3D23E09207A1F583E08A838AE218
:104F800089834FB7F894DE01139620E03EE051E2AA
:104F9000E32FF0E050935700E49120FF03C0E29527
:104FA000EF703F5FEF708E2F90E0EA30C0F0C79651
:104FB0008D939D932F5F243159F74FBF8091E80067
:104FC000877F8093E8006AE270E0CE0101960E943C
:104FD00041248091E8008B778093E80057C0C09609
:104FE000E7CF60913E0570913F05AE014F5F5F4F87
:104FF0000E949323BC01892B09F448C08091E800EA
:10500000877F8093E80089819A810E949B24E1CF69
:105010008038E1F58091E800877F8093E8008091F7
:1050200035058093F10045CF811130C090913C054A
:10503000923060F58091E800877F8093E80090933C
:1050400035050E942A2580913505882311F084E0DA
:1050500005C08091E30087FDFACF81E08093390598
:105060000E94892213C080913C05813079F481E04F
:10507000933009F080E0809337051092E900809129
:10508000E800877F8093E8000E942A258091E8004D
:1050900083FF0AC08091E800877F8093E8008091B9
:1050A000EB0080628093EB00AA960FB6F894DEBF07
:1050B0000FBECDBFDF91CF911F9108950895CF937B
:1050C000809139058823A1F0C091E900CF709091BB
:1050D000EC00892F817090FD80E8C82B1092E900C8
:1050E0008091E80083FD0E940C27CF70C093E900F7
:1050F000CF9108950E947A25109239050895E8ED20
:10510000F0E08081806180838AE18A95F1F700C0B8
:105110008091D90081700895991B79E004C0991F8E
:10512000961708F0961B881F7A95C9F78095089501
:10513000AA1BBB1B51E107C0AA1FBB1FA617B707BD
:1051400010F0A61BB70B881F991F5A95A9F78095D9
:105150009095BC01CD010895EE0FFF1F0590F491CD
:10516000E02D0994FB01DC0102C005900D92415035
:105170005040D8F70895FB01DC0104C08D910190E7
:10518000801921F441505040C8F7881B990B0895AD
:10519000FB01DC0102C001900D9241505040D8F754
:1051A0000895FB01DC0101900D920020E1F70895C4
:1051B000AEE0B0E0EEEDF8E20C94D42B0D891E8940
:1051C0008F89988D26E02C831A83098397FF02C06C
:1051D00080E090E801979E838D83AE01455E5F4F2E
:1051E000698D7A8DCE0101960E9408294D815E81DC
:1051F00057FD0AC02F813885421753070CF49A01D6
:10520000020F131FF80110822E96E4E00C94F02B8D
:10521000AFE0B0E0EEE0F9E20C94C62B7C013B017C
:105220008A01DC0117961C921E92169713968C9198
:1052300081FFC3C19AE0292EFE0131964F01D701AB
:1052400013969C91F30193FD859193FF81913F010A
:10525000882309F448C1853239F493FD859193FF81
:1052600081913F01853229F4B70190E00E94F62A2E
:10527000E6CFB12C412C512CBFE1B51538F08B3263
:1052800009F188F4803201F1833221F157FC3AC0F0
:1052900020ED280F2A3040F556FE1FC0B29C200D8D
:1052A0001124B22E06C08D3291F0803379F76894C4
:1052B00050F8F30193FD859193FF81913F01811196
:1052C000DBCF20C0689451F8689452F8F2CF68940C
:1052D00053F8EFCF689454F8ECCF429C200D112482
:1052E000422E689455F8E5CF8E3229F456FCFBC067
:1052F000689456F8DECF8C3619F4689457F8D9CFF5
:105300008836B9F2982F9F7D95549330C0F083363C
:10531000A1F18337C1F1833509F05BC0D801CD908D
:10532000DD908D016B2D70E056FC02C06FEF7FEFBA
:10533000C6010E94E02A5C01689457F80AC00C5F1D
:105340001F4FEFE3E983AA24A394B12C6401E894EE
:1053500057F853FC04C04A141B0409F018F5342C08
:10536000A114B10431F5332009F469CFB70180E20B
:1053700090E00E94F62A3A94F6CFD8018C91898366
:105380000E5F1F4FE0CFF801C190D1908F016B2DC0
:1053900070E056FC02C06FEF7FEFC6010E94EB2A5F
:1053A0005C01D5CFB70180E290E00E94F62A4A94D2
:1053B000D2CFF60157FC859157FE81916F01B7015D
:1053C00090E00E94F62A31103A94B1E0AB1AB1088D
:1053D000C7CF843619F0893609F074C0F80157FE3A
:1053E0006AC061917191819191918F01E52DEF7664
:1053F000DE2E97FF09C090958095709561957F4F3F
:105400008F4F9F4F6894D7F82AE030E0A4010E94A4
:10541000262BC82EC818AC2C5D2CD6FE0CC0E894E8
:1054200050F8CB1440F4D4FE05C0D2FC03C05D2D6F
:105430005E7E552EAB2C54FE98C0FE01EC0DF11D86
:105440008081803309F08AC0652D697E562E752DC6
:105450007870372E53FC98C050FE92C0BC2CA41418
:1054600018F44C0CB42CBA1854FE94C0B70180E365
:1054700090E00E94F62A52FE09C088E790E051FEB3
:1054800002C088E590E0B7010E94F62ACB1408F428
:105490008DC0CA94D12C8FEFC81AD80AC80CD91C59
:1054A000D6018E916D01B70190E00E94F62A8C140E
:1054B0009D04B1F758CF61917191072E000C880BB4
:1054C000990B93CFD52CE894D4F82AE030E08537B7
:1054D00039F1F52DF97FDF2E8037A9F058F48835A2
:1054E000A9F08F36D9F0F701868197812F96E2E1F6
:1054F0000C94E22B8837B9F7D4FE02C06894D2F836
:1055000020E130E00DC06894D4F8F6CF54FE03C01B
:105510002F2F2660D22E20E132E002C028E030E0BA
:10552000F801D7FE15C041915191619171914C875D
:105530005D876E877F878F01A4016C857D858E8551
:105540009F850E94262BC82EC818E894D7F863CFF1
:1055500081919191AC0170E060E0E9CF52FC02C012
:10556000A39475CFA394A39472CF852D867809F464
:105570006ECFF6CFB70180E290E00E94F62AA394A6
:10558000A414C0F3312C70CF342C3A18A41408F4AE
:105590006BCFF8CF852D867809F478CF8BE251FE5A
:1055A00080E257FC8DE2B70190E06ECFB70180E357
:1055B00090E00E94F62ABA9469CF8FEF9FEF96CFC2
:1055C000FC010590615070400110D8F780959095CE
:1055D0008E0F9F1F0895FC016150704001900110D3
:1055E000D8F7809590958E0F9F1F08950F931F9366
:1055F000CF93DF93182F092FEB018B8181FD09C019
:105600001FEF0FEF812F902FDF91CF911F910F91FF
:10561000089582FF14C02E813F818C819D812817BF
:1056200039073CF4E881F981CF0101969983888399
:1056300010838E819F8101969F838E83E3CFE885BF
:10564000F985812F0995892BA1F3DACFFA01AA27D1
:10565000283051F1203181F1E8946F936E7F6E5FB5
:105660007F4F8F4F9F4FAF4FB1E03ED0B4E03CD063
:10567000670F781F891F9A1FA11D680F791F8A1F46
:10568000911DA11D6A0F711D811D911DA11D20D0AD
:1056900009F468943F912AE0269F11243019305D67
:1056A0003193DEF6CF010895462F4770405D419358
:1056B000B3E00FD0C9F7F6CF462F4F70405D4A33A5
:1056C00018F0495D31FD4052419302D0A9F7EACF6D
:1056D000B4E0A6959795879577956795BA95C9F79C
:1056E00000976105710508959B01AC010A2E06948F
:1056F0005795479537952795BA95C9F7620F731F48
:10570000841F951FA01D0895F999FECF92BD81BDFC
:10571000F89A992780B50895A8E1B0E042E050E0FA
:105720000C94B82B262FF999FECF92BD81BDF89A23
:10573000019700B4021639F01FBA20BD0FB6F894D5
:10574000FA9AF99A0FBE08950396272F0E94932B79
:105750000E94922B252F0E94932B242F0C94932B85
:105760000196272F0E94932B0C94922BDC01CB01E6
:10577000FC01F999FECF06C0F2BDE1BDF89A319661
:1057800000B40D9241505040B8F708952F923F92C7
:105790004F925F926F927F928F929F92AF92BF9241
:1057A000CF92DF92EF92FF920F931F93CF93DF93ED
:1057B000CDB7DEB7CA1BDB0B0FB6F894DEBF0FBE4A
:1057C000CDBF09942A88398848885F846E847D8497
:1057D0008C849B84AA84B984C884DF80EE80FD8099
:1057E0000C811B81AA81B981CE0FD11D0FB6F8940F
:1057F000DEBF0FBECDBFED010895F894FFCF031CAF
:10580000071C0B1C191C1D1C211C251C2B1C331CCC
:10581000371C3B1C3F1C4B1C4F1C531C571C5D1C56
:105820007B1C651C151C431C471C2F1C611C711C18
:10583000841C881C35275D2746285D27462890272D
:08584000B127462808281428AE
:10584800808182838485868788898A8B8C8D8E8FD8
:105858009091929394A0A1A2A3A4A5A6A7A8A9AA4F
:10586800ABACADAEAFB0B1B2B3B4C0C1C2C3C4C5C6
:10587800C6C7C8C9CACBCCCDCECFD0D1D2D3D4001D
:105888006400710201000000010000000000000037
:1058980005010000000406000000000000002100CF
:1058A8007F2200032D2232226222302263223122FB
:1058B800014C617965723A2044656661756C7400C3
:1058C8004C617965723A205261697365004C61795F
:1058D80065723A204C6F776572004C617965723A4F
:1058E8002041646A757374004C617965723A205579
:1058F8006E6465662D256C6400F6F73133323666C2
:0E59080097C6343596020008101818100800D3
:00000001FF
